:020000040800F2
:100000003807002031020008650C00088B0A000840
:100010008F0A000839050008751800080000000064
:10002000000000000000000000000000A10F000818
:10003000A908000800000000750E000895110008CE
:100040004B0200084B0200084B0200084B0200085C
:100050004B0200084B0200084B0200084B0200084C
:100060004B0200084B0200084B0200084B0200083C
:100070004B020008B90500084B0200084B020008BB
:100080004B0200084B0200084B0200084B0200081C
:100090004B0200084B0200084B0200084B0200080C
:1000A0004B0200084B0200084B0200084B020008FC
:1000B0003D1300084B0200084B0200084B020008E9
:1000C0004B0200084B0200084B0200084B020008DC
:1000D0004B0200084B0200084B0200084B020008CC
:1000E0004B0200084B0200084B0200084B020008BC
:1000F0004B0200084B0200084B0200084B020008AC
:100100004B0200084B0200084B0200084B0200089B
:100110004B0200084B0200084B0200084B0200088B
:100120004B0200084B0200084B0200084B0200087B
:100130004B0200084B0200084B0200084B0200086B
:100140004B0200084B0200084B0200084B0200085B
:100150004B0200084B0200084B0200084B0200084B
:100160004B0200084B0200084B0200084B0200083B
:100170004B0200084B0200084B0200084B0200082B
:100180004B0200084B02000800F002F800F040F8B3
:100190000AA090E8000C82448344AAF10107DA45E2
:1001A00001D100F035F8AFF2090EBAE80F0013F0F4
:1001B000010F18BFFB1A43F001031847CC360000AB
:1001C000EC360000103A24BF78C878C1FAD852073C
:1001D00024BF30C830C144BF04680C6070470000C1
:1001E0000023002400250026103A28BF78C1FBD840
:1001F000520728BF30C148BF0B6070471FB503F0DE
:1002000076FA9DE8030000F0A9F81FBD10B510BDF7
:1002100000F010F91146FFF7F1FF02F069FA00F063
:100220002EF903B4FFF7F2FF03BC00F05FF9000002
:100230000948804709480047FEE7FEE7FEE7FEE77A
:10024000FEE7FEE7FEE7FEE7FEE7FEE704480549B6
:10025000054A064B70470000B111000889010008EB
:100260003801002038070020380300203803002020
:1002700070B5064600F056F8056806F10B0020F050
:100280000704B4429CBF002070BD2B466A68BAB117
:100290001068A04210D304F1080188423CBF5068A6
:1002A000586007D35168101941601168091B01603B
:1002B00058601460101D70BD13465268002AE7D1C3
:1002C0002146284600F036F80028DED170BD70B512
:1002D0000446051F00F026F80068002C14BF44688F
:1002E00070BD002C18BFAC423CBF20466468F8D3F8
:1002F00001680A18AA4218BF456003D12A6805465A
:100300001144016028684119A1421CBF6C6070BD96
:100310006168696021680844286070BD7047704753
:100320007047000000487047DC00002070477047AD
:100330007047704738B504460A4600206946AFF357
:100340000080002808BF38BD02460099204600F012
:100350004FF8012038BD012000F064B8F8B5AFF3C4
:100360000080054600200C46102000BF0646A81954
:10037000A0420DD9324669460020AFF30080070045
:1003800008BF00F04FF80098A04218BF0546C419F6
:10039000FFF7C8FF05600746F01D20F0070046196B
:1003A000284600F00AF8B44208BFF8BDA21B314647
:1003B0003868BDE8F84000F01BB800210160C0E9D2
:1003C000011070471020704710B500F00DF800685C
:1003D00010BD10B5044600F007F8046010BD000021
:1003E00000487047D400002000487047D400002027
:1003F000034640688C46002818BF88423CBF03462D
:100400004068F8D318681844884207D00CF10300FC
:1004100020F00700001D411A521A0146081D0A600B
:10042000FFF755BF10B500F039F8BDE8104000F0F7
:100430002FB870477546FFF7D3FFAE4605006946F3
:10044000534620F00700854618B020B5FFF7FEFEA2
:10045000BDE820404FF000064FF000074FF00008C5
:100460004FF0000B21F00701AC46ACE8C009ACE846
:10047000C009ACE8C009ACE8C0098D46704710B5AA
:100480000446AFF300802046BDE81040FFF7C9BE28
:10049000002801D000F02AB87047000010B50128EC
:1004A00005D0002103A000F027F8012010BD09A10C
:1004B000F8E7000053494752544D454D3A204F75D7
:1004C00074206F662068656170206D656D6F72794C
:1004D000000000003A2048656170206D656D6F7204
:1004E0007920636F72727570746564000149182019
:1004F000ABBEFEE72600020070B505460C460A209A
:1005000000E06D1C00F011F835B128780028F8D112
:1005100002E0641C00F009F814B120780028F8D13A
:10052000BDE870400A20AFF3008008B569468DF839
:1005300000000320ABBE08BD00BFFEE7014600EE91
:10054000901AF8EEE00A9FED081A60EE810A9FED1E
:10055000071AC0EE811AB0EE610AFCEEC00A10EE76
:10056000900A80B2704700000000164400008743E4
:1005700001469FED0E1AF0EE410AB5EEC00AF1EE0B
:1005800010FA02DB0120086001E0002008609FED06
:10059000081A20EE011ADFED071A81EE212AF0EE8B
:1005A000420ABCEEE01A11EE100A7047000000008B
:1005B00000003B4400001644F8B50420FFF758FE45
:1005C00006460320FFF754FE04460A20FFF750FEBC
:1005D00005462B4622463146304800F0E3FC3048C1
:1005E0000078012802D12F49087014E02C480078C7
:1005F000042810D104222CA1304600F0BBFD0128B4
:1006000006D004222AA1304600F0B4FD012802D110
:1006100001202449087023480078012816D1264873
:1006200000782649087026483168016025482188ED
:100630000180A1788170244829680160696841605F
:100640002989018101202149087012E020480078A1
:100650001A49087001201D49087018481D4B2A4688
:1006600021460090304600F0C3FC1348007813493F
:1006700008703046FFF72BFE2046FFF728FE28467D
:10068000FFF725FE0020074908701349134800F0C2
:1006900041F80121114800F057F8F8BD98000020FA
:1006A00000000020280000205356454C00000000A8
:1006B00053544F500000000035000020300000204F
:1006C000290000202D000020C00000203100002063
:1006D00036000020AC000020008020104060024066
:1006E0000246094B9A4201D2084801E006481038F8
:1006F00001F000531BB1064B0B40C36002E0044BFA
:100700000B408360704700001064024000600240AC
:100710007D0F7D0F0246094B9A4201D2084801E045
:100720000648103801F000531BB1064B0B40C36064
:1007300002E0044B0B4083607047000010640240ED
:10074000006002407D0F7D0F21B1026842F001027E
:10075000026003E0026822F001020260704710B5F7
:1007600001F080034BB122B1436943F08003436140
:1007700003E0436923F08003436180290BD02AB151
:10078000036801F01E042343036004E0036801F0E2
:100790001E04A343036010BD10B500220268134B72
:1007A0001A40CC680B6823434C6923438C6923436C
:1007B000CC6923430C6A23434C6A23438C6A23434A
:1007C0004C6B23438C6B23431A430260426922F033
:1007D0000702D1E90B3423431A4342610B6943609A
:1007E0004B6883608B68C36010BD00003F801CF0C5
:1007F00000B591B00121480500F03EFB4FF00060CC
:10080000029025480390254804900020059014206C
:100810000690002007904FF4806008900020099017
:100820000A900B904FF400300C9000200D900120A6
:100830000E9000200F90109002A91948FFF7ACFF0E
:1008400001211748FFF780FF0D208DF804000020DC
:100850008DF805008DF8060001208DF8070001A82D
:1008600000F002FA012210210D48FFF778FF0A4834
:1008700003900C480490402005901420069002A993
:1008800007483030FFF788FF012105483030FFF777
:100890005BFF11B000BD0000044C00409800002038
:1008A00040600240AC0000207047000000B589B0F5
:1008B0000121022000F0E0FA0121042000F0ECFA0E
:1008C000C020079002208DF820008DF8210007A994
:1008D0001B4800F067F802220621194800F0AAF828
:1008E00002220721164800F0A5F80020ADF8040008
:1008F0004FF6FF7002900020ADF80600ADF80C0036
:1009000001A9104800F09EFE0420ADF81000002060
:10091000ADF81200ADF818000120ADF8140004A9DC
:10092000084800F0D6FD00231A460321054800F0D0
:10093000ACFD4FF40041034800F056FE09B000BD85
:1009400000040240000800401CB50121082000F00E
:1009500093FA4FF48050009001208DF8040002209B
:100960008DF8050000208DF8060069460B4800F060
:1009700019F80121022000F07FFA4FF44060009046
:1009800001208DF8040002208DF8050000208DF86C
:1009900006006946024800F005F81CBD0008024048
:1009A00000040240F0B50A4600210023002400BFE5
:1009B0003DE0012505FA01F3156805EA03049C42B0
:1009C00034D105684F000326BE40B5430560157954
:1009D0004E00B5400668354305601579012D02D0FB
:1009E0001579022D16D185684F000326BE40B54308
:1009F000856055794E00B540866835438560456809
:100A000001268E40B5434560456896798E40B6B262
:100A100035434560C5684F000326BE40B543C560F9
:100A2000D5794E00B540C6683543C560491C1029CC
:100A3000BFD3F0BDF0B5002300244D07ED0E02FA40
:100A400005F3CE1000F1200555F826504E07F70E9D
:100A50000F26BE40B543CF1000F1200646F82750C0
:100A6000CE1000F1200555F8265045EA0304CE10BB
:100A700000F1200545F82640F0BD41837047018311
:100A8000704742694A404261704700BFFEE700BFBD
:100A9000FEE7000010B50446044800F017FD206092
:100AA0004FF40041014800F09FFD10BD00080040D8
:100AB00070B50446104890FBF4F0401E85B20F4814
:100AC000056000200D490831086000214FF080408A
:100AD00000F08AFD002109482C3800F085FD4FF414
:100AE0000041074800F080FD064800F061F9012050
:100AF00000F07EF870BD000000BD01052C04004030
:100B0000000800407400002000B52DED028B83B07A
:100B1000B0EE408A01A8FFF7BDFF0198A0F50040A4
:100B20002D49086002A8B0EE480AFFF721FD2B49C5
:100B300008609FED2B1A284890ED000AF8EE400A55
:100B4000084690ED000AB8EE400A264800F0C8F8C2
:100B5000BDEEC00A10EE100A00B22349096808442D
:100B6000214908600846006800280DDB012000F0DC
:100B70003FF81D490A68002A01DB114600E0514296
:100B800088B200F057F810E01748006800280CDA27
:100B9000002000F02DF814490A68002A01DB1146F4
:100BA00000E0514288B200F045F81048008805285E
:100BB0000EDA09480068FFF7C1FC0A4918310B4AF0
:100BC000128821F8120009480088401C0749088053
:100BD00003B0BDEC028B00BD10000020140000200B
:100BE0000AD7233C740000200C00002018000020CD
:100BF00010B5044614B1012C16D10AE04FF400617F
:100C00000B48FFF73AFF4FF480610948FFF737FFC1
:100C10000BE04FF400610648FFF731FF4FF48061AD
:100C20000348FFF72AFF00E000BF00BF10BD00002F
:100C3000000402400149086070470000340400408D
:100C400010B50121880700F014FC0121034800F0D1
:100C500010FC0121024800F00CFC10BD0004004013
:100C6000000800407047000070B5002100230F22EB
:100C7000C4781CB3174C246804F4E064C4F5E06441
:100C8000C4F30721C1F10404E3B20A4144789C4053
:100C9000E1B28478144021430C07210E0E4C0578F4
:100CA0006155047804F01F050124AC4005786D11EE
:100CB000AD0005F1E025C5F8004109E0047804F035
:100CC0001F050124AC40054D0678761145F82640F5
:100CD00070BD00000CED00E000E400E080E100E009
:100CE000F0EE401ADFED233AB0EE632ADFED213A51
:100CF000F0EE632ADFED1F3AB0EE633A71EEE03AB0
:100D00001D49C1ED003AD0ED003A91ED004A63EE85
:100D1000843AB0EE632AD0ED053A91ED004A73EEC5
:100D2000843AC0ED053AF0EE003A81EE234AD0ED68
:100D3000013A64EE233A90ED054A63EE843AF0EE10
:100D4000632AD0ED023A90ED044AD1ED004A34EE28
:100D5000C44A63EE843A83EE814AB0EE443A72EEBE
:100D6000223A73EE833AB0EE630AD1ED003AC0ED59
:100D7000043A70470000000054000020B7EE000A5B
:100D800080ED000A9FED090A80ED010A9FED070A38
:100D900080ED020A40F6B83181819FED040A80EDB2
:100DA000040A9FED020A80ED050A7047000000006A
:100DB0009FED060A80ED050A9FED040A80ED040A06
:100DC0009FED020A024981ED000A70470000000011
:100DD00054000020F0B52DED028B89B004460D467D
:100DE000F0EE408A0026002008EE100A00271E4878
:100DF00000684008B0FBF4F0401E86B2B4FBF5F08A
:100E0000401E08EE100ADFED190A88EEA00AF8EE7F
:100E1000480A20EE200ABCEEC00A10EE100A87B283
:100E20008DED078AADF818600020ADF82000602035
:100E3000ADF81A0006A90E4800F004FC6020ADF8D9
:100E400004000120ADF8060003970020ADF8100063
:100E500001A9074800F07EFB0821054800F0B8FB17
:100E600009B0BDEC028BF0BD380000200000C84284
:100E7000000400407047000029B1064A126802438E
:100E8000044B1A6004E0034A12688243014B1A6063
:100E9000704700003038024029B1064A1268024308
:100EA000044B1A6004E0034A12688243014B1A6043
:100EB0007047000040380240F0B5002100220024B5
:100EC000022500260223324F3F6807F00C0121B1B2
:100ED000042905D0082937D105E02E4F076036E0F8
:100EE0002D4F076033E02A4F3F1F3F68C7F38056FE
:100EF000274F3F1F3F6807F03F036EB1264FB7FBF8
:100F0000F3F7DFF88CC0ACF1040CDCF800C0CCF3D4
:100F1000881C07FB0CF40CE01E4FB7FBF3F7DFF85F
:100F200070C0ACF1040CDCF800C0CCF3881C07FBEB
:100F30000CF4174F3F1F3F68C7F301477F1C7D002C
:100F4000B4FBF5F7076002E0124F076000BF00BF77
:100F50000F4F3F6807F0F0010909104F7A5C0768EE
:100F6000D74047600A4F3F6807F4E051890A0B4FAA
:100F70007A5C4768D7408760054F3F6807F4604157
:100F8000490B064F7A5C4768D740C760F0BD000048
:100F9000083802400024F40000127A0064000020A7
:100FA0007047000030B504780E4D2D78AC4217D153
:100FB000C47C0D4D2D78AC4212D1847C0B4D2D7824
:100FC000AC420DD1D0F801400C60B0F8054014805F
:100FD000C479947084681C60C4685C60048A1C8155
:100FE00030BD00003200002033000020340000201B
:100FF0002DE9F04706460F4690461D46DDF8209045
:101000001C480078012832D100241B490978295551
:10101000641C281931680160241D28193988018051
:10102000B9788170E41C2819D8F800100160D8F84C
:1010300004104160B8F8081001810A3499F80010D2
:101040002955641C0D49097829550D490D48FFF7AC
:1010500047FB14200B497039486701210948FFF705
:1010600073FB0020034908700120BDE8F0870020D1
:10107000FBE7000031000020320000203300002098
:1010800020000020706002400CB50020019000900C
:101090003448006840F480303249086000BF31486D
:1010A000006800F4003000900198401C0190009806
:1010B00018B90198B0F5A04FF1D12A48006800F4A2
:1010C000003010B10120009001E000200090009855
:1010D000012846D123484030006840F08050214923
:1010E000403108602048006840F440401E490860D4
:1010F0001C48083000681B49083108600846006831
:1011000040F4004008600846006840F4A0500860C1
:101110001648091F0860081F006840F08070091F0A
:10112000086000BF0F48006800F000700028F9D088
:1011300040F205700E4908600A480830006820F047
:1011400003000849083108600846006840F00200C2
:10115000086000BF03480830006800F00C00082851
:10116000F8D10CBD00380240007000400854400720
:10117000003C024030B503460C46002106E0585CB6
:10118000655CA84201D0002030BD491C9142F6DBCD
:101190000120F9E701200449086004480068401C68
:1011A0000249086070470000500000204C000020F9
:1011B00010B51548006840F47000134908601348E2
:1011C000006840F001001149086000200F49083113
:1011D00008600E4800680E4908400C4908600D4838
:1011E000091D0860081F006820F48020091F08609E
:1011F000002006490C310860FFF746FF4FF0006001
:1012000001498039086010BD88ED00E000380240D7
:10121000FFFFF6FE10300024F0B50C461546002105
:101220000022068C4FF6FE773E400684018B028C2E
:101230004FF60C7631407E1C06EA03162E433143EE
:101240004FF6F576324044F00106324301830284C2
:10125000F0BDF0B50C461546002100220026078C93
:101260004FF6EF7C07EA0C070784018B028C4FF6E0
:10127000FF7707EA041640F6FF4739404FF6FF773D
:1012800007EA033739434FF6FF7707EA0527394363
:101290004FF65F773A4046F010073A4301830284E5
:1012A000F0BDF0B50C461546002100220026078C43
:1012B0004FF6FF6C07EA0C070784818B028C4FF610
:1012C000FF7707EA04264FF60C7739404FF6FF7791
:1012D00007EA03172F4339434FF2FF573A4046F4CA
:1012E00080773A4381830284F0BDF0B50C46154601
:1012F000002100220026078C4EF6FF7C07EA0C072F
:101300000784818B028C4FF6FF7707EA043640F69C
:10131000FF4739404FF6FF7707EA052739434FF675
:10132000FF7707EA0337394345F6FF773A4046F43B
:1013300080573A4381830284F0BD000038B52E48BF
:101340000078082851D2DFE800F0500405070806AD
:1013500045444AE049E048E047E02848D0ED000A2B
:10136000B0EE600AFFF7D0FB2548008805282FD192
:101370002448254909680160244825490A880280D3
:101380008978817000240DE0224830F81400000AAA
:10139000214A02F814001F4810F814106000401C85
:1013A0001154641C16480088401EA042ECDA01204B
:1013B0001A4908701A481B4B174A144900901148E3
:1013C000FFF716FE0020154908700D49088000BF80
:1013D0000BE00AE00020FFF72DFC00211248FFF788
:1013E000B3F901200449087000BF00BF012188073C
:1013F00000F03CF838BD0000000000200400002090
:101400001800002058000020290000205C00002067
:101410002D0000208C000020CA0000203100002098
:1014200030000020AC000020706002401CB501219B
:101430000220FFF731FD01210420FFF71DFD4020B0
:10144000009002208DF8040003208DF80500002094
:101450008DF8060069460448FFF7A4FA0222062127
:101460000148FFF7E7FA1CBD00080240CA430282A8
:10147000704721B1028842F00102028004E0028834
:101480004FF6FE731A4002807047F0B50C461546C1
:101490001E460021002200230189028B038C4FF697
:1014A000F877394021434FF6FC473A4040F20117A4
:1014B0003A434FF6DD773B404FF6FF7707EA0617D2
:1014C0002F433B43018102830384F0BD0146486AF8
:1014D000704770B505460C46208850B92389A2880C
:1014E00061882846FFF798FEE188284600F07EF8DC
:1014F00025E0208804280AD12389A288618828460B
:10150000FFF7A7FEE188284600F079F817E0208869
:1015100008280AD12389A28861882846FFF7C1FEDE
:10152000E188284600F078F809E02389A2886188DC
:101530002846FFF7DAFEE188284600F076F870BD0D
:101540001AB183890B43838102E083898B438381B2
:101550007047000070B5002400220023058C4FF670
:10156000FE7635400584028C8388048B4FF68F7598
:101570002C40B51E2C400D882C43751E2A408D89A9
:101580002A434D882A43104DA84202D00F4DA8424D
:1015900013D14FF6F7752A40CD892A434FF6FB75D4
:1015A0002A408D882A434FF6FF652B404FF6FF55A2
:1015B0002B400D8A2B434D8A2B43838004838D68F7
:1015C0004563028470BD000000000140000401403A
:1015D0000A460021018B4FF6F7731940114301832E
:1015E000704701858282704741627047028B4FF6D7
:1015F000F3731A400283028B0A4302837047028B03
:101600004FF2FF331A400283028B4FF6FF7303EA57
:1016100001231A4302837047828B4FF6F3731A40FB
:101620008283828B0A4382837047828B4FF2FF331F
:101630001A408283828B4FF6FF7303EA01231A4319
:101640008283704700220288184B98420ED0184BB4
:1016500098420BD0B0F1804F08D0164B984205D07D
:10166000154B984202D0154B984204D14FF68F7318
:101670001A404B881A43124B984207D0114B98429C
:1016800004D04FF6FF431A400B891A4302804B687F
:10169000C3620B880385054B984202D0044B9842E5
:1016A00001D18B7A038601238382704700000140B9
:1016B000000401400004004000080040000C00400D
:1016C000001000400014004000B587B0012108461A
:1016D000FFF7D2FB0121C804FFF7DEFB082200213F
:1016E0002248FFF7A7F9082201212048FFF7A2F9B5
:1016F0000120059002208DF8180000208DF81A00B6
:1017000001208DF81B0002208DF8190005A917484B
:10171000FFF748F9022005908DF8180005A9134835
:10172000FFF740F94FF4E13001900020ADF80800D8
:10173000ADF80A00ADF80C00ADF810000C20ADF8C3
:101740000E0001A90A4800F02BF80121084800F01A
:1017500011F801228021064800F018F801224021EA
:10176000034800F013F807B000BD0000000002407D
:10177000004C004021B1828942F40052828104E091
:1017800082894DF6FF731A40828170471AB1838AAD
:101790000B43838202E0838A8B438382704700007D
:1017A0002DE9FF4705460E460024A14600BFA0468E
:1017B000B08900B100BF2C8A24F44054F08804435F
:1017C0002C82AC8941F20C608443B0883189084393
:1017D000718908430443AC81AC8A24F44074B08915
:1017E0000443AC826846FFF767FB2048854202D07D
:1017F0001F48854202D1DDF80C9001E0DDF8089029
:10180000A88900F4004040B109EBC90000EB0910C1
:1018100031684900B0FBF1F707E009EBC90000EBC4
:10182000091031688900B0FBF1F76420B7FBF0F0D4
:1018300004012009642101FB1078A88900F400400C
:1018400040B1322000EBC800B0FBF1F000F007001F
:10185000044308E0322000EB08106421B0FBF1F0F3
:1018600000F00F0004432C81BDE8FF870010014009
:101870000014014000BFFEE703B401984100009846
:1018800050EAC12018BF04204A0D18BF40F00100E3
:1018900040F2FF72B2EB515F08BF40F00200012836
:1018A00008BF052002B070472DE9F04D2DED040B67
:1018B0002DED0E8B96B0DDE92550279CDDF890A02C
:1018C00025F0004624F00048BAF1000F14BF0121B2
:1018D000002101EB4502FC4953184A1093422AD3D8
:1018E000002814BF0123002303EB44030B44F749F2
:1018F0008B4220D358EA00019FEDF59B76D0DFF8AC
:10190000D8B35D4503D1BAF1000F05D188E0BAF133
:10191000000F08BF002100D0012101EB450111F5A6
:10192000001F08D8002814BF0121002101EB440149
:1019300011F5001F0BD99DED261B9DED240B16B054
:10194000BDEC0E8B04B0BDE8F04D00F069BE002781
:10195000002DBCBFE149884521DAE1498845A8BF8F
:1019600002271CDAC3451ADCDE4901EB2851142991
:1019700008DDC1F1340220FA02F101FA02F28242DA
:101980000DD108E058B9C1F1140228FA02F101FAA8
:1019900002F2424503D101F00101C1F1020756EA0A
:1019A0000A0124D1002C22DA002D18BF022F01D009
:1019B000012F0AD00220FEF70CFD16B0BDEC0E8BF5
:1019C00004B0BDE8F04D00F013BE0220FEF701FDAB
:1019D00000F00EFE51EC100B01F07BF841EC100B07
:1019E00016B0BDEC0E8B04B0BDE8F08D18E09FED95
:1019F000BEAB9FEDBF8B002871D1B848804522D186
:101A000005F1804010F5801008BFBAF1000F07D033
:101A1000B3450ADC002CA8BF9DED260BE0DA0DE0F3
:101A2000B0EE490AF0EE690ADAE7002C06DA9DED1D
:101A3000260B51EC100B01F04CF86FE0AE487844E7
:101A400090ED000BCCE7D8454DD1002C48DA2EB1F3
:101A500086423AD1BAF1000F42D126E0BAF1000F26
:101A600013D00220FEF7B5FC00F0F6FD8DED020B61
:101A70009DED240B8DED000B10EE900A039961F3A0
:101A80001E0003909DED020BAAE78DED02AB9DEDCC
:101A9000240B1AEE901A10EE900A8DED000B61F3F4
:101AA0001E0003909DED020B9AE78DED028B9DEDDC
:101AB000240B18EE901A10EE900A8DED000B61F3D6
:101AC0001E0003909DED020B8AE709DA9DED240BC1
:101AD00051EC190B53EC102B01F0F6F81EE020E04E
:101AE0009DED240B7CE786421BDAB4F1804F0DD0CC
:101AF000A4F10050B0F1FF5013D1002D11DB9DED8A
:101B0000240B51EC100B00F077FF07E09DED240B48
:101B100053EC102B51EC100B00F0C2BC41EC100B3D
:101B20005EE79DED240B51EC100B00F0B5FDBAF112
:101B3000000FCDE90E0142D19FED710B46B3A6F126
:101B4000E040B0F17F600CD05E4538D1002D00DA66
:101B5000A7B3022F0CBF01204FF0FF3001F00CFAA9
:101B6000DCE7002D01DD002C0DDA002D01DD002C5D
:101B70001FDB002D16DA002C14DB012F08BF9FEDB0
:101B8000620B3FF42DAFB0EE4A0AF0EE6A0A27E787
:101B9000022F18BF002D0CD0012F0AD1002DFFF607
:101BA0001FAF06E0002DB8BF002C08DA012F3FF46C
:101BB00017AFB0EE480AF0EE680A11E71BE001200B
:101BC00000EBE57050EA070115D0791EB0EE498AA6
:101BD000F0EE698A084308BF9FED4D8B4E48002503
:101BE000804570DD4D494E48884514DDB0420DDB1F
:101BF000002C19DB2FE00120FEF7EBFB16B0BDEC4B
:101C00000E8B04B0BDE8F04D00F016BDB34502DC0C
:101C1000002C09DC1FE0864202DA002C1BDA03E00C
:101C20005E452BDD002C16DD0220FEF7D2FB00F016
:101C300013FD8DED020B53EC1A2B51EC180B01F038
:101C4000EFF9CDE900010399019861F31E000390BB
:101C50009DED020BC4E60220FEF7BBFB00F00CFD7D
:101C600010EE901A18EE900A8DED020B8DED008BA0
:101C700061F31E0003909DED020BB1E69DED0E0B8E
:101C800053EC192B51EC100B01F0D6FB9FED260BFA
:101C9000CDE9080153EC102B9DED080B51EC100B16
:101CA00001F0BEF99FED221B53EC112B01F0ECFA71
:101CB0009DED081B53EC112B01F0B2F99FED1E1B9B
:101CC00053EC112B3CE08CE0FFFF1F00FFFF0F00E7
:101CD000000000000000F03F0000F03F0000F07F37
:101CE0000000404301FCFFFF000000000000F07F07
:101CF00000000000000000003E1E00000000000088
:101D00000000000000000080000000000000F0FF64
:101D1000000000000000F0BF0000E0410000F043C0
:101D2000FFFFEF3F00000000000000000000D03F78
:101D3000555555555555D53F000000000000E03F72
:101D400001F0A2FA9DED080B41EC1A0B53EC102B9D
:101D500051EC100B01F064F953EC1A2B01F060F90F
:101D600041EC1A0B9FEDFE0B53EC102B9DED080B75
:101D700051EC100B01F054F941EC1B0B9FEDFA0BE9
:101D800051EC1A0B53EC102B01F04AF941EC1A0BF1
:101D90009FEDF70B53EC102B9DED080B51EC100B46
:101DA00001F03EF953EC1A2B01F046FB41EC1A0B03
:101DB00051EC1B0B53EC1A2B00F0CAFE0690CDE938
:101DC00006519DED060B53EC1B2B51EC100B01F053
:101DD00033FB53EC1A2B01F057FA41EC100B00F0D7
:101DE000A1B90020B6F5801F0EDA9FEDE30B53EC8E
:101DF000102B9DED0E0B51EC100B01F011F9CDE9FC
:101E00000E016FF034000E4600EB2650A0F2FF37B3
:101E1000C6F31300DA4940F07F6646F04056884228
:101E2000D8BF002408DDD7498142C8BF012403DCA4
:101E30000024A6F580167F1CD348784400EBC4002C
:101E40000F9690ED00CB9DED0E0B53EC1C2B51EC3F
:101E5000100B01F0F1FA9DED0E0B41EC1B0B53EC56
:101E60001C2B51EC100B00F073FE41EC100B51ECED
:101E7000190B53EC102B00F027FF41EC1D0B51EC1C
:101E80001B0B53EC1D2B01F0CBF841EC1A0BBF4898
:101E90008DED10AB7844109590ED000B4FF0005095
:101EA00040EA660000EB84408DED080B00F5002051
:101EB00009909DED080B53EC1C2B51EC100B01F01D
:101EC000BBFA9DED0E1B53EC112B01F0DDF941EC3B
:101ED000100B53EC102B9DED100B51EC100B01F07F
:101EE0009FF89DED080B41EC1C0B53EC102B9DED66
:101EF000100B51EC100B01F093F853EC1B2B01F07D
:101F0000C3F953EC1C2B01F097FA53EC1D2B01F095
:101F100087F841EC1C0B53EC1A2B51EC1A0B01F017
:101F20007FF841EC1B0B9A480621B0EE4B0AF0EE0D
:101F30006B0A784400F0E0FAB0EE401AF0EE601A56
:101F4000B0EE41DAF0EE61DA53EC1B2B51EC1B0BD7
:101F500001F066F853EC1D2B01F062F89DED100BBB
:101F600041EC1B0B53EC1A2B51EC100B00F0F0FD65
:101F700053EC1C2B01F054F853EC1B2B00F0E8FD44
:101F80009DED100B41EC1B0B53EC102B51EC100B87
:101F900001F046F841EC1D0B9FED7FEB53EC1E2B3F
:101FA00000F0D6FD53EC1B2B00F0D2FD0890CDE9DC
:101FB00008519DED080B53EC1E2B51EC100B01F05A
:101FC0003BFA53EC1D2B01F037FA53EC1B2B01F0BD
:101FD0005BF99DED080B41EC1D0B53EC102B9DEDB7
:101FE000100B51EC100B01F01BF841EC1B0B53ECE8
:101FF0001A2B51EC1D0B01F013F89DED080B41EC71
:102000001A0B53EC102B51EC1C0B01F009F853EC9C
:102010001A2B00F09DFD41EC1A0B51EC1B0B53ECFD
:102020001A2B00F095FD0C90CDE90C519DED0C0B99
:1020300053EC1B2B51EC100B01F0FEF953EC1A2B57
:1020400001F022F941EC1B0B9FED550B53EC102BCB
:102050009DED0C0B51EC100B00F0E2FF41EC1A0B64
:102060009FED510B51EC1B0B53EC102B00F0D8FFE4
:1020700041EC1B0B9FED4E0B53EC102B9DED0C0B0D
:1020800051EC100B00F0CCFF53EC1B2B00F060FD6B
:1020900041EC100B4848784400EBC40090ED001B65
:1020A00051EC100B53EC112B00F052FD41EC1B0BCB
:1020B000384600F061FFCDE9080153EC1B2B51ECD1
:1020C0001A0B00F045FD41EC100B3C48784400EB46
:1020D000C40090ED00CB51EC100B53EC1C2B00F026
:1020E00037FD9DED081B53EC112B00F031FD0690E0
:1020F000CDE906519DED080B53EC102B9DED060B21
:1021000051EC100B01F098F953EC1C2B01F094F9F1
:1021100053EC1A2B01F090F953EC1B2B01F0B4F89F
:1021200041EC100B9DED261B53EC102B8DED001B8D
:1021300000959DED260B51EC100B00F071FF9DED0D
:10214000000B41EC1A0B53EC102B9DED260B51ECC0
:10215000100B01F071F99DED061B53EC112B2FE0D4
:10216000000000604715F73FFE822B654715F73FDB
:1021700044DF5DF80BAE543E000000000000404319
:102180008E9803007AB60B00BA190000E819000017
:10219000F2180000000000000000000000000840ED
:1021A000000000E009C7EE3FFD033ADC09C7EE3F3F
:1021B000F5015B14E02F3EBE7E17000038170000CB
:1021C00000F02EFF53EC1A2B00F0C2FC9DED060B25
:1021D00041EC1A0B53EC102B9DED000B51EC100B46
:1021E00000F01EFFCDE90C019DED0C0B51EC1A0B1C
:1021F00053EC102B00F0ACFCCDE902010C46AA49CF
:102200008C422FDB611A084318D19DED0C0B53EC67
:10221000102B9DED020B51EC100B01F00DF941EC70
:102220001B0B9FEDA30B51EC1A0B53EC102B00F082
:102230008FFC53EC1B2B00F0F1FF2DD20220FEF798
:10224000C8F800F009FA10EE901A18EE900A8DED19
:10225000020B8DED008B61F31E0003909DED020BD0
:10226000FFF7BEBB944A24F00041914214D3934936
:10227000214408437FF4EFAC9DED0C0B53EC102B85
:102280009DED020B51EC100B01F0D6F853EC1A2B1C
:1022900000F0C4FF7FF6DFAC24F000408849894A93
:1022A000002601EB205182422BDA481C4FF48011AA
:1022B00021FA00F02044844AC0F30A517A44A1F282
:1022C000FF3192ED000B814A8DED080BCA4020EAE8
:1022D0000202C0F3130040F48010C1F1140120FA8F
:1022E00001F60992002CB8BF76429DED080B53EC25
:1022F000102B9DED0C0B51EC100B01F09DF8CDE96E
:102300000C019DED0C0B51EC1A0B53EC102B00F053
:102310001FFC9FED6F0B0890CDE9085153EC102B7B
:102320009DED080B51EC100B00F07AFE41EC1B0BFD
:102330009FED690B53EC102B9DED080B51EC100B2E
:1023400000F06EFE9DED0C0B41EC1C0B53EC102BC2
:102350009DED080B51EC100B01F06EF853EC1A2BAD
:1023600000F092FF9FED5E1B53EC112B00F058FE26
:1023700053EC1C2B00F0ECFB41EC1A0B51EC1B0B4B
:1023800053EC1A2B00F0E4FBCDE902019DED020BAA
:1023900053EC1B2B51EC100B01F04EF853EC1A2BA5
:1023A00000F072FF9DED020B41EC1A0B53EC102B69
:1023B00051EC100B00F034FECDE908014A489DEDC8
:1023C000080B0521784400F097F89DED081B51ECAF
:1023D000100B53EC112B00F023FE9DED021B53EC70
:1023E000112B00F051FFCDE906019DED020B53ECDE
:1023F0001A2B51EC100B00F013FE53EC1A2B00F0CB
:10240000A7FB9FED3B0B41EC1A0B53EC102B9DED02
:10241000060B51EC100B01F00FF89DED060B41EC93
:102420001B0B53EC102B9DED020B51EC100B00F02D
:10243000F7FD53EC1B2B00F047FC53EC1A2B00F07C
:10244000FBFF9DED021B53EC112B00F0F5FF53EC4D
:10245000192B00F019FFCDE9020101EB065001151F
:102460000029C8BF039015DC9DED020B324651ECEC
:10247000100B01F078F9FFF7FFF9042808BF00F00E
:10248000FBF832469DED020B51EC100B01F06BF99D
:10249000CDE902019DED020B51EC180B53EC102B12
:1024A00000F0BEFDFFF73ABB0000904000000000C6
:1024B000FE822B654715973C00CC904000346F3F5F
:1024C00001FCFFFF0000E03FC0150000FFFF0F0010
:1024D00000000000432EE63F396CA80C615C20BE72
:1024E000EF39FAFE422EE63F901400000000000093
:1024F000000000000000004070B504462DED028B86
:102500004D1E00EBC500B0EE408AF0EE608A90ED03
:10251000000B35F0060017D053EC182B51EC100BC4
:1025200000F07EFD41EC100B6D1E04EBC50090ED3C
:10253000001B51EC100B53EC112B00F009FB41EC8C
:10254000100B35F00600E7D1022D36D0042D1CD03B
:10255000062D1CBFBDEC028B70BD53EC182B51EC4B
:10256000100B00F05DFD94ED0A1B53EC112B00F0F5
:10257000EFFA53EC182B00F053FD94ED081B53ECCD
:10258000112B00F0E5FA41EC100B53EC182B51EC39
:10259000100B00F045FD94ED061B53EC112B00F0E1
:1025A000D7FA53EC182B00F03BFD94ED040B53ECE1
:1025B000102B00F0CDFA41EC100B53EC182B51EC22
:1025C000100B00F02DFD94ED021B53EC112B00F0CD
:1025D000BFFA53EC182B00F023FD94ED001B53ECD5
:1025E000112B00F0B5FABDEC028B41EC100B70BD65
:1025F0009FED070B10B553EC102B9FED070B51EC23
:10260000100B00F061FB41EC100B10BD000000004E
:102610000000000000000000000000000000F03F8B
:1026200010B553EC112B51EC100B00F091FA41EC6A
:10263000100B10BD000000009FED050B10B553EC12
:10264000102B51EC100B00F03FFB41EC100B10BDB8
:1026500000000000000000009FED050B10B553ECDA
:10266000102B51EC100B00F0DBFC41EC100B10BDFB
:1026700000000000000000709FED050B10B553EC4A
:10268000102B51EC100B00F0CBFC41EC100B10BDEB
:10269000000000000000001082B0CDE9000121F030
:1026A000004001909DED000B02B051EC100B704703
:1026B00010B500F0D8F9FFF707F8FEF799F8FEF724
:1026C00043F9FEF7B3FE0748B0F90C109FED060A78
:1026D0000648FEF77FFBFEF7E9F80248FEF74EFBDF
:1026E00010BD0000740000200000000000BD0105C6
:1026F0002DED0C8B82B0FFF7DBFF4EE1A748007891
:1027000001285CD10103A648FEF7BBF90422A5A16C
:10271000A648FEF72FFD50B1A5480078012801D149
:10272000022001E0A2480078A149087044E0042298
:10273000A0A19E48FEF71EFD38B39D4800780128F1
:1027400003D103209A49087036E09948007804289C
:1027500032D19A4880780A2190FBF1F09749497864
:10276000964A127802EBC20303EB021201EB8201DC
:10277000084400EE100AB8EEC00A914880ED000A45
:102780008A4890A10968016016E004228DA187485B
:10279000FEF7F0FC18B10520854908700CE0042212
:1027A0008AA18248FEF7E6FC18B10720804908702C
:1027B00002E001207E4908700020784908707C48BA
:1027C0000078082805D2DFE800F0E7040591D6B7C5
:1027D000E6D7E1E00120714908707E487E4B774AD8
:1027E0007E4900907148FEF703FC7448407800EE83
:1027F000100AB8EE400AB2EE041AC0EE010A6F48A1
:10280000007800EE100AB8EE400A30EE800A7448F4
:1028100080ED000A6948C07800EE100AB8EE400A60
:10282000B2EE041AC0EE010A6448807800EE100A85
:10283000B8EE400A30EE800A694880ED010A5F4830
:10284000807900EE100AB8EE400A10EE101A084621
:1028500000F0DCFE41EC1D0BB0EE4D1AF0EE6D1AEF
:102860009FED600BFFF720F8B0EE40BAF0EE60BAD3
:102870005248407900EE100AB8EE400A10EE101AE5
:10288000084600F0C3FE53EC1B2B00F01DFA41EC90
:10289000190B4A48007900EE100AB8EE400A10EE13
:1028A000101A084600F0B2FE53EC192B00F050F954
:1028B00000F01CF94A4988604048007A3F49C979CC
:1028C00001EBC10202EB011100EB810000B24449AF
:1028D0008881898988B2FEF7EBF84FF400414348BC
:1028E000FEF782FE01203249087055E001202B4995
:1028F00008703848384B314A384900902B48FEF769
:1029000077FB2E4880780A2190FBF1F02B4949781B
:102910002A4A127802EBC20303EB021201EB820196
:10292000084400EE100AB8EEC00A254880ED000AFF
:1029300001201F4908702FE0012018490870254820
:10294000254B1E4A254900901848FEF751FB0020F0
:10295000274908602248FEF72BFA4FF4004123482C
:10296000FEF742FE002023490880FEF769F90420A3
:102970000F49087010E00FE0012008490870154861
:10298000154B0E4A154900900848FEF731FB06200A
:102990000749087000E000BF00BFAFE6310000202B
:1029A000000C024053504944000000002900002060
:1029B000000000205356454C00000000C0000020DD
:1029C000040000204352554E0000000053544F5065
:1029D0000000000030000020AC0000202D0000208E
:1029E00074000020000000000000244000080040A7
:1029F000140000201800002000B52DED048B83B0DA
:102A000041EC190B00F04CFC41EC180B18EE100ACD
:102A100018EE901A8DED008B002818BF0120084396
:102A200020F00040C0F17F6000F1E040C00F14D002
:102A300019EE101A19EE900A8DED009B002918BFAF
:102A40000121084320F00040C0F17F6000F1E04028
:102A5000C00F04BF0120FDF7BCFC51EC180B03B004
:102A6000BDEC048B00BD1FB5632401210846FEF7B1
:102A700013FA1C208DF80C0000208DF80D000120A9
:102A80008DF80E008DF80F0003A8FEF7EDF84AF25E
:102A90000F400190ADF800400020ADF80800ADF8FF
:102AA000020069464FF08040FEF7CCFD4FF08040B9
:102AB000008840F080004FF08041088001222146CC
:102AC0009007FEF78EFD012211469007FEF738FDB4
:102AD0001FBD81F00041704780F00040704721F039
:102AE0000041704720F000407047000021F0004294
:102AF000A2F16052B2F5801F01F0004328BFD2F16D
:102B00007F6C0BD95FEA001C43EAC20242EB5070B3
:102B100018BF704728BF20F001007047B2F5801F32
:102B2000BCBF184670474FEA410C1CF5001F02D28B
:102B3000084600F0E1BD70B500F01CFB0000008904
:102B4000FFF7F6BF4FF00040A0F58000704700008F
:102B500010B591EA030F48BF83F0004300F174847D
:102B6000841A71EB030C05D2121943EB0C03001B02
:102B700061EB0C01DFF824E14FEA1154A4EB135C84
:102B80001EEA430F18BF9EEA445F73D023EA0E0388
:102B9000DCF1200E21EA045143F4801332D322FAEF
:102BA0000CFE10EB0E0023FA0CFE41EB0E01CCF1F3
:102BB000200E03FA0EFE10EB0E0051F10001B1F5EC
:102BC000801FCCF1200E32D201EB045112FA0EF22A
:102BD000BDE8104058BF7047401C38BF5FEA420252
:102BE00018BF7047002814BF20F0010041F1000118
:102BF0004FEA410313F5001F38BF7047A1F1C041F0
:102C000000F006BB012A43EB0302ACF1200CDCF11F
:102C10001F0E32BF4FF0000E23FA0CF310EB03002F
:102C200041EB0451B4EB115FD0D0A1EB045101F59D
:102C3000801149085FEA300001EB04510ED350F1D6
:102C4000000038BF12FA0EFE08D1BDE81040C9E7F7
:102C5000401C38BF5FEA4202CAD1C3E7BDE810405A
:102C60004FEA410313F5001F38BF7047A1F1C0417F
:102C700000F0CEBA9EEA445F08D011EA5E0FBDE8CC
:102C8000104004BF01F0004100207047BDE8104033
:102C900070B500F06FFA00BF64FBBE3E0000E0FFBD
:102CA00002494FF0000000F02CBD00BF0000F87F8B
:102CB000491058BFC1F140415B1058BFC3F14043B8
:102CC0008B42EFF3008070472DE9C04130B4DFF84C
:102CD000A0C23CEA111418BF3CEA131400F0EC80C7
:102CE00081EA03051CEA111444EAD57418BF1CEAF2
:102CF000131500F0C780A4EB05044FF0004545EA2A
:102D0000C12145EAC32341EA505143EA525304F139
:102D10007F74994204F500344FEAC0204FEAC22282
:102D200008BF904200F09C804FEA13650FF24016F6
:102D3000765D4FEA134506FB05F7C7F1807706FB82
:102D400007F74FEAD737A7FB03687642C8F5803804
:102D5000A7FB06CE38BFA8F1010807FB08E64FF035
:102D6000000EA6FB028CE6FB03CEDCF1000CCEF1DC
:102D7000004E38BFAEF1010EA6FB0C584FF0000715
:102D80004FF00005E6FB0E87A1FB08C6A0FB07CEAF
:102D900016EB0E0645F10005E1FB076515F1E04E67
:102DA0007EBFA4F580345FEA46066D4116F18007C8
:102DB00045F100054FEA17274FEA066647EA05671F
:102DC000A6F1DE46B6F1805F4FEA15251FD93846D9
:102DD00024F0010C05EBC471BCF1FE6F01EB0C118A
:102DE00002D8F0BCBDE8008124425CBF01F5801E22
:102DF0009EEAC47F02D4F0BCBDE80081244238D4EE
:102E0000F0BCA1F1C041BDE8004100F001BA4FEAB9
:102E1000D22242EA43524FEAD323A7FB02864FEA6B
:102E2000D02040EA415007FB03661EEA0E0F4FEA2E
:102E3000D12105FB026658BFA6EB0056B6EB005643
:102E40004FEA520E4EEAC37E18EB0E0E56EB530EAF
:102E5000BDD518EB02085E417F1C55F10005B6E7B1
:102E60004FF480154FF000074FF000064FF00008B8
:102E7000ADE7F0BC4FF0000001F1C04101F00041AE
:102E8000BDE8008111EA0C1F0CEA131500D00CE01C
:102E900013EA0C1F00F025804FF00000F0BC81EA1F
:102EA000030101F00041BDE80081F0BCBDE8004134
:102EB00081EA030100F0ACB9F0BCBDE8004170B597
:102EC00000F058F9097EFC3E00F007B881EA0301E2
:102ED0004FF0000001F00041704781EA030100F06B
:102EE00097B9F0BCBDE800414FF0000021497047A0
:102EF000FFFDFBF9F7F5F4F2F0EEEDEBE9E8E6E4BF
:102F0000E3E1E0DEDDDBDAD8D7D5D4D3D1D0CFCD45
:102F1000CCCBCAC8C7C6C5C4C2C1C0BFBEBDBCBB7E
:102F2000BAB9B8B7B6B5B4B3B2B1B0AFAEADACAB79
:102F3000AAA9A8A8A7A6A5A4A3A3A2A1A09F9F9E53
:102F40009D9C9C9B9A999998979796959594939305
:102F5000929191908F8F8E8E8D8C8C8B8B8A89899C
:102F6000888887878685858484838382828181801F
:102F70000000FF070000F87F10F0004248BF404209
:102F8000B0FA80F310FA03F10AD0C3F11D0303F580
:102F900080634FEA415002EB035202EBD1217047AC
:102FA0004FF000007047000051EA030C17D41CF5E5
:102FB000801F58BFBCF5801F00F10680994218BFE2
:102FC000704708BF9042704707D711F5801F58BF60
:102FD00013F5801F19D499427047894270471CF538
:102FE000801F08D5BCF5801FF7D58B4218BF7047EE
:102FF00008BF824270474FF4001C1CEB410F38BFE2
:103000001CEB430F01D28B42704770B500F0B2F851
:10301000922449004FF000514FF08053FFF748BE13
:10302000DFF848C170B51CEA111E1EBF1CEA13155B
:103030009EEA0C0F95EA0C0F00F06F8081EA030402
:1030400023EA4C134EEAD47E21EA4C1141F480115C
:1030500043F48013AE44A1FB024CA0FB0365AEF128
:103060007F7E361955EB0C05A1FB034C4CF1000398
:10307000A0FB021C16EB0C06654153F1000309424C
:1030800018BF46F0010613F4007F0BD14FEA03315D
:103090004FEA0530340341EA155140EA16506FF00B
:1030A00003020AE04FEAC3214FEAC520F40241EAD5
:1030B000555140EA56506FF0020202EB2E4201EBEE
:1030C000025585EACE710AD05FEA440C18BF24F09D
:1030D000004450F1000041F1000120EAD47040F2B8
:1030E000FE7C624500D270BDA84214BF4FF0804400
:1030F0004FF04044002E08BF0024BEF1806FA8BFEF
:10310000A1F1C041BDE8704080F282804FF0000024
:1031100001F1C04101F0004170479EEA0C0F0CEA3A
:10312000131518BF95EA0C0F06D04FF0000081EA86
:10313000030E0EF0004170BD00F01CF88900013E46
:1031400000F007B800F009B84FEA430C5FEA5C5C96
:1031500008D081EA030100F05BB84FEA410C5FEA56
:103160005C5CF6D14FF00000014970470000FF079A
:103170000000F87F0EF1020E2EF0030E5EF8046BD5
:10318000364205D4012A43EB030515F5001F12D87A
:10319000012841EB010C1CF5001F0CD80ED14FEAA1
:1031A000D17C15F5001F0CEB4C0C0CF1020C08BF88
:1031B0004CEBD37C04E04FF0080C01E04FEAD37CE9
:1031C0000CEB4C0526FA05F606F00706B6F1040CE2
:1031D00006D20EEB860CBDE870404CF0010C604747
:1031E000DFE80CF0090B02024FF000414FF0000045
:1031F000A1F5002170BD19461046012851EB0104CC
:1032000018BFD4F5001484BF002001F0004170BD48
:103210000808A0F500114FEA3101704753EA010C8C
:1032200017D41CF5801F58BFBCF5801F00F1068025
:103230008B4218BF704708BF8242704707D713F50B
:10324000801F58BF11F5801F19D48B4270479B42D5
:1032500070471CF5801F08D5BCF5801FF7D5994233
:1032600018BF704708BF904270474FF4001C1CEB1A
:10327000430F38BF1CEB410F01D2994270470FB486
:103280000CBC03BCFFF7C1BE91EA030F10B581F07F
:1032900000413FF565AC83F0004300F0D5B8000075
:1032A0002DE9F04101F5801CBCF5001FC0F2A9809A
:1032B0004FEA115C21EA0C510CF1FD0C41F4801134
:1032C0005FEA5C0C0CF5C07C01D34000494130A49E
:1032D000890241EA905187028E0E0A0CA45D04FB1C
:1032E00004F602FB06F6C6F14046A4FB0662F60DA4
:1032F00046EA422606FB06F4A4FB01235242C3F130
:10330000404338BF5B1EA6FB02420024E6FB0324B9
:10331000D20B42EA4446A6FB0623A1FB02E2A3FB32
:1033200007E4E3FB61426442C2F1404E38BFAEF1B4
:10333000010EA6FB04234FF00002E6FB0E32A2FBB7
:1033400003463400E2FB6264A1FB06E6A4FB07E847
:10335000E4FB61687642C8F1405838BFA8F1010823
:10336000A2FB06E4A3FB08E5E2FB6854A1FB05E62B
:10337000A7FB04E8E1FB648618F1200556F100067E
:10338000A809A8F11B08B10908F03F08B8F10A0F15
:1033900040EA86601CD901EB0C51BDE8F08100BF0A
:1033A000FCF5EEE8E2DDD8D3CFCBC7C3C0BDB9B6DC
:1033B000B4B1AEACA9A7A5A3A19F9D9B9A989695E1
:1033C0009392908F8D8C8B89888786858483828168
:1033D000A0FB006800FB01F208EB4208B8EB87286D
:1033E00007D5341858EB0104D5D5401C51F1000124
:1033F000D1E7341A78EB0104CDD4401E71F10001FD
:10340000C9E75FEA4C0C5FEA9C5C0DD105D34FF035
:10341000000001F00041BDE8F081BDE8F04170B569
:10342000FFF7A8FE6DDBFFBEBDE8F0414FF00000E6
:10343000004970470000F87F10B591EA030F48BFBC
:1034400083F000433FF58CAB841A71EB030C07D279
:1034500012198CF0004C43EB0C03001B61EB0C01C8
:10346000DFF8A4E14FEA1154A4EB135C1EEA430F0A
:1034700018BF9EEA445F00F0B08023EA6E03524218
:1034800021EA0451C3EB6E0338BF5B1EDCF1200E52
:1034900025D322FA0CFE10EB0E0043FA0CFE41EB92
:1034A0000E01CCF1200E03FA0EFE10EB0E0051F1CE
:1034B0000001CCF1200E29D412FA0EF201EB0451D6
:1034C000BDE8104058BF7047401C1CBFB2F1004F10
:1034D000704700280CBF491C20F00100704712EB18
:1034E000020E43EB030218BF4FF0010E4EEA4202F8
:1034F000ACF1200CDCF11E0E54D943FA0CFE10EB9B
:103500000E0051F1FF31CCF11E0ED5D50EF1010E9A
:1035100012FA0EFE404141EB010101EB445C5FEA0F
:103520005C5C10D910EBDE7001EB045138BFBEF1CA
:10353000004FBDE8104018BF704700280CBF491C61
:1035400020F00100704730D24FEAD42C11F5001161
:1035500024F400641BD0B1FA81F20B3AA41AA41E21
:10356000D2F12003914030FA03F31943904001EB6C
:10357000CC71002C01EB0451BDE81040A8BF70478E
:1035800001F1C0414FF0000001F000417047B0FA76
:1035900080F310FA03F100D110BDE41A173C48057E
:1035A000C90AE4E701EB045110BD491001EB0451D5
:1035B000BDE810404FEA300002E04FF000017047D4
:1035C0004A0008BF0042F8D0B2F5001F28BF70477C
:1035D00001F000414FF0000070479EEA445F07D0C1
:1035E00011EA5E0FBDE8104004BF002100207047C3
:1035F000BDE8104070B5FFF7BDFD00BF40DFF63EEF
:1036000083F00041104670470000E0FF43004FEA9E
:10361000D30C4FEA3C0C43401FBF40070CF16051F4
:1036200013F0FE4F70471CF0006F03D100200CF028
:10363000004170470CF0004343EA507010B540EA77
:10364000CC0000F00EF800BF000000924FEA00012D
:10365000FFF7DEBD4FF000414FF00000A1F5002163
:1036600070470EF1020E2EF0030E5EF8044B24425A
:1036700004D44FEA4102B2F17F4F11D84FEA400320
:10368000B3F17F4F0CD80ED14FEAD07CB2F17F4F0F
:103690000CEB4C0C0CF1020C08BF4CEBD17C04E0A1
:1036A0004FF0080C01E04FEAD17C0CEB4C0324FAFC
:1036B00003F404F00704B4F1040C06D20EEB840CFE
:1036C000BDE810404CF0010C6047DFE80CF0070843
:1036D00002024FF00040A0F5800010BD08464200F5
:1036E00018BFD2F1807288BF00F0004010BD4FF0CB
:1036F0004070E1EE100A7047FF2141EAD050C0054A
:1037000070470CF00F03092B08BF082000F0598008
:103710000A2B0BD0082B18BF704708BF1CF0400FB6
:103720000AD04FF000004FF0000170471CF0400F2E
:1037300018BF4FF0004070471CF0100F08D020F069
:10374000704300F07F4242EAD3014FEA4370704772
:1037500000F0604021F07F4242EA000201F07F4029
:1037600040EA727070474FF0FF0C4CF4E06C1CEABA
:1037700011531CBF9CEA030C9445C2BFDA4201EB13
:1037800002517047002B0DD0BCF1000F0FD0002A62
:1037900001F00041A4BF41F0E04141F07F614FF0F2
:1037A0000000704701F000414FF00000704750EA00
:1037B00001334FF09B0C18BF4CF0806C7FF470AA63
:1037C00070471CF4801F11D01CF4E02F03D06FEA67
:1037D000CC31490070474FF04050EFF3008222F0A7
:1037E000704242EA000282F3008870474FF0000006
:1037F0007047000000000000000000000000F03FE3
:10380000000000000000F83F000000000000000081
:103810000000004003B8E23F00000000000000008C
:1038200006D0CF43EBFD4C3E033333333333E33F1A
:10383000FFAB6FDBB66DDB3F4D268F515555D53F46
:1038400001411DA96074D13F65DBC9934A86CD3F14
:10385000EF4E454A287ECA3F3E5555555555C53F02
:1038600093BDBE166CC166BF2CDE25AF6A56113FF4
:10387000F16BD2C541BDBBBED0A4BE726937663EF6
:103880000000000000000000A83800080000002030
:1038900074000000C40100081C39000874000020F6
:1038A000C4060000E0010008010000000000000064
:1038B0000000000000000000000000000000000008
:1038C0000000000000800000000000000000000078
:1038D00000000000000000000000020316061500B2
:1038E000007A030A00000000000000000102030447
:1038F00006070809000000000000000000000000AA
:1039000000000000000000000000000000000000B7
:0C39100001020304010203040607080979
:040000050800018965
:00000001FF
