:020000040800F2
:100000002807002031020008E50C0008930A0008C8
:10001000970A0008390500085D1800080000000074
:100020000000000000000000000000002110000897
:10003000B108000800000000F50E000815120008C5
:100040004B0200084B0200084B0200084B0200085C
:100050004B0200084B0200084B0200084B0200084C
:100060004B0200084B0200084B0200084B0200083C
:100070004B020008C10500084B0200084B020008B3
:100080004B0200084B0200084B0200084B0200081C
:100090004B0200084B0200084B0200084B0200080C
:1000A0004B0200084B0200084B0200084B020008FC
:1000B000BD1300084B0200084B0200084B02000869
:1000C0004B0200084B0200084B0200084B020008DC
:1000D0004B0200084B0200084B0200084B020008CC
:1000E0004B0200084B0200084B0200084B020008BC
:1000F0004B0200084B0200084B0200084B020008AC
:100100004B0200084B0200084B0200084B0200089B
:100110004B0200084B0200084B0200084B0200088B
:100120004B0200084B0200084B0200084B0200087B
:100130004B0200084B0200084B0200084B0200086B
:100140004B0200084B0200084B0200084B0200085B
:100150004B0200084B0200084B0200084B0200084B
:100160004B0200084B0200084B0200084B0200083B
:100170004B0200084B0200084B0200084B0200082B
:100180004B0200084B02000800F002F800F040F8B3
:100190000AA090E8000C82448344AAF10107DA45E2
:1001A00001D100F035F8AFF2090EBAE80F0013F0F4
:1001B000010F18BFFB1A43F00103184794370000E2
:1001C000B4370000103A24BF78C878C1FAD8520773
:1001D00024BF30C830C144BF04680C6070470000C1
:1001E0000023002400250026103A28BF78C1FBD840
:1001F000520728BF30C148BF0B6070471FB503F0DE
:10020000DCFA9DE8030000F0A9F81FBD10B510BD91
:1002100000F010F91146FFF7F1FF02F081FA00F04B
:100220002EF903B4FFF7F2FF03BC00F05FF9000002
:100230000948804709480047FEE7FEE7FEE7FEE77A
:10024000FEE7FEE7FEE7FEE7FEE7FEE704480549B6
:10025000054A064B7047000031120008890100086A
:100260002801002028070020280300202803002060
:1002700070B5064600F056F8056806F10B0020F050
:100280000704B4429CBF002070BD2B466A68BAB117
:100290001068A04210D304F1080188423CBF5068A6
:1002A000586007D35168101941601168091B01603B
:1002B00058601460101D70BD13465268002AE7D1C3
:1002C0002146284600F036F80028DED170BD70B512
:1002D0000446051F00F026F80068002C14BF44688F
:1002E00070BD002C18BFAC423CBF20466468F8D3F8
:1002F00001680A18AA4218BF456003D12A6805465A
:100300001144016028684119A1421CBF6C6070BD96
:100310006168696021680844286070BD7047704753
:100320007047000000487047D000002070477047B9
:100330007047704738B504460A4600206946AFF357
:100340000080002808BF38BD02460099204600F012
:100350004FF8012038BD012000F064B8F8B5AFF3C4
:100360000080054600200C46102000BF0646A81954
:10037000A0420DD9324669460020AFF30080070045
:1003800008BF00F04FF80098A04218BF0546C419F6
:10039000FFF7C8FF05600746F01D20F0070046196B
:1003A000284600F00AF8B44208BFF8BDA21B314647
:1003B0003868BDE8F84000F01BB800210160C0E9D2
:1003C000011070471020704710B500F00DF800685C
:1003D00010BD10B5044600F007F8046010BD000021
:1003E00000487047C800002000487047C80000203F
:1003F000034640688C46002818BF88423CBF03462D
:100400004068F8D318681844884207D00CF10300FC
:1004100020F00700001D411A521A0146081D0A600B
:10042000FFF755BF10B500F039F8BDE8104000F0F7
:100430002FB870477546FFF7D3FFAE4605006946F3
:10044000534620F00700854618B020B5FFF7FEFEA2
:10045000BDE820404FF000064FF000074FF00008C5
:100460004FF0000B21F00701AC46ACE8C009ACE846
:10047000C009ACE8C009ACE8C0098D46704710B5AA
:100480000446AFF300802046BDE81040FFF7C9BE28
:10049000002801D000F02AB87047000010B50128EC
:1004A00005D0002103A000F027F8012010BD09A10C
:1004B000F8E7000053494752544D454D3A204F75D7
:1004C00074206F662068656170206D656D6F72794C
:1004D000000000003A2048656170206D656D6F7204
:1004E0007920636F72727570746564000149182019
:1004F000ABBEFEE72600020070B505460C460A209A
:1005000000E06D1C00F011F835B128780028F8D112
:1005100002E0641C00F009F814B120780028F8D13A
:10052000BDE870400A20AFF3008008B569468DF839
:1005300000000320ABBE08BD00BFFEE700EE900A3E
:10054000F8EE600A9FED071A60EE810A9FED061A29
:1005500060EE810A9FED051AC0EE811AB0EE610AC5
:1005600070470000000070420000C842000087434E
:10057000014600BFB5EEC00AF1EE10FA02DB012021
:10058000086001E000200860BDEEC01A11EE100AFC
:10059000002801DB024600E0424202EB82025200E8
:1005A0004FF487735A434EF6602392FBF3F201EE49
:1005B000102AF8EEC10ABCEEE01A11EE100A7047DC
:1005C000F8B50420FFF754FE06460320FFF750FE5F
:1005D00004460A20FFF74CFE05462B4622463146CC
:1005E000304800F01FFD30480078012802D12F4923
:1005F000087014E02C480078042810D104222CA1A3
:10060000304600F0F7FD012806D004222AA130462A
:1006100000F0F0FD012802D1012024490870234890
:100620000078012816D12648007826490870264807
:1006300031680160254821880180A17881702448B3
:100640002968016069684160298901810120214987
:10065000087012E0204800781A49087001201D49EE
:10066000087018481D4B2A4621460090304600F07D
:10067000FFFC13480078134908703046FFF727FE47
:100680002046FFF724FE2846FFF721FE00200749F9
:1006900008701349134800F041F80121114800F097
:1006A00057F8F8BD8C00002000000020200000203A
:1006B0005356454C0000000053544F5000000000BA
:1006C0002D0000202800002021000020250000200F
:1006D000B4000020290000202E000020A0000020EF
:1006E00000802010406002400246094B9A4201D22D
:1006F000084801E00648103801F000531BB1064BD2
:100700000B40C36002E0044B0B4083607047000065
:1007100010640240006002407D0F7D0F0246094BCD
:100720009A4201D2084801E00648103801F000530F
:100730001BB1064B0B40C36002E0044B0B408360CF
:100740007047000010640240006002407D0F7D0F82
:1007500021B1026842F00102026003E0026822F067
:1007600001020260704710B501F080034BB122B165
:10077000436943F08003436103E0436923F080034E
:10078000436180290BD02AB1036801F01E04234382
:10079000036004E0036801F01E04A343036010BD7E
:1007A00010B500220268134B1A40CC680B68234333
:1007B0004C6923438C692343CC6923430C6A23434C
:1007C0004C6A23438C6A23434C6B23438C6B234337
:1007D0001A430260426922F00702D1E90B34234335
:1007E0001A4342610B6943604B6883608B68C36046
:1007F00010BD00003F801CF000B591B001214805FC
:1008000000F07AFB4FF000600290254803902548E5
:1008100004900020059014200690002007904FF4CB
:1008200080600890002009900A900B904FF40030EF
:100830000C9000200D9001200E9000200F90109041
:1008400002A91948FFF7ACFF01211748FFF780FF05
:100850000D208DF8040000208DF805008DF80600AD
:1008600001208DF8070001A800F03EFA01221021B6
:100870000D48FFF778FF0A4803900C480490402089
:1008800005901420069002A907483030FFF788FF32
:10089000012105483030FFF75BFF11B000BD0000BB
:1008A000044C00408C00002040600240A00000206A
:1008B0007047000000B589B00121022000F01CFB48
:1008C0000121042000F028FBC020079002208DF8B1
:1008D00020008DF8210007A91B4800F067F80222CC
:1008E0000621194800F0AAF802220721164800F054
:1008F000A5F80020ADF804004FF6FF70029000202C
:10090000ADF80600ADF80C0001A9104800F08EFE0D
:100910000420ADF810000020ADF81200ADF818006A
:100920000120ADF8140004A9084800F0C6FD00231A
:100930001A460321054800F09CFD4FF6FF7103485D
:1009400000F046FE09B000BD00040240000800406F
:100950001CB50121082000F0CFFA4FF48050009020
:1009600001208DF8040002208DF8050000208DF88C
:10097000060069460B4800F019F80121022000F03A
:10098000BBFA4FF44060009001208DF80400022073
:100990008DF8050000208DF806006946024800F039
:1009A00005F81CBD0008024000040240F0B50A46EC
:1009B00000210023002400BF3DE0012505FA01F3DA
:1009C000156805EA03049C4234D105684F000326EC
:1009D000BE40B543056015794E00B5400668354305
:1009E00005601579012D02D01579022D16D1856883
:1009F0004F000326BE40B543856055794E00B54093
:100A0000866835438560456801268E40B54345605C
:100A1000456896798E40B6B235434560C5684F004B
:100A20000326BE40B543C560D5794E00B540C668C3
:100A30003543C560491C1029BFD3F0BDF0B5002374
:100A400000244D07ED0E02FA05F3CE1000F120054B
:100A500055F826504E07F70E0F26BE40B543CF106F
:100A600000F1200646F82750CE1000F1200555F879
:100A7000265045EA0304CE1000F1200545F8264033
:100A8000F0BD418370470183704742694A4042612B
:100A9000704700BFFEE700BFFEE7000010B5044648
:100AA000024800F007FD206010BD00000008004073
:100AB00070B504460F4890FBF4F0451E0E480560E3
:100AC00000200D490831086000214FF0804000F0FF
:100AD0007FFD002108482C3800F07AFD4FF6FF71A9
:100AE000064800F075FD064800F0A2F9012000F06C
:100AF000BFF870BD406F40012C040040000800406A
:100B00006800002000B52DED028B83B0B0EE408A66
:100B100001A8FFF7C3FF2F4901980968401A2E4921
:100B200008602C490198086002A8B0EE480AFFF757
:100B30001FFD2A4908609FED2A1A274890ED000AF8
:100B4000F8EE400A084690ED000AB8EE400A254843
:100B500000F006F9BDEEC00A234880ED000A0068E7
:100B600000280DDB012000F083F81F480268002AEE
:100B700001DB114600E05142084600F09BF810E00E
:100B80001948006800280CDA002000F071F81648B7
:100B90000268002A01DB114600E05142084600F0DD
:100BA00089F80D480068FFF7C9FCBDEEC00A10EED9
:100BB000100A01B20B4818300C4A128820F81210A3
:100BC0000A480088401C0949088003B0BDEC028B2C
:100BD00000BD00001C0000201000002014000020B8
:100BE0000AD7233C680000200800002018000020DD
:100BF00010B5044600214FF0804000F02EFC00218B
:100C0000154800F02AFC0021144800F026FC41F6AB
:100C1000573011492C31086000200F4934310860E9
:100C200000210D4800F0D4FC4FF6FF710B4800F096
:100C3000CFFC00214FF0804000F0CAFC084800F0D3
:100C4000F7F800200749086007490860074908804D
:100C5000012000F00DF810BD000400400008004025
:100C60006800002014000020100000201800002060
:100C700010B5044614B1012C16D10AE04FF40061FE
:100C80000B48FFF7FEFE4FF480610948FFF7FBFEBB
:100C90000BE04FF400610648FFF7F5FE4FF480616A
:100CA0000348FFF7EEFE00E000BF00BF10BD0000EC
:100CB000000402400149086070470000340400400D
:100CC00010B50121880700F0C8FB0121034800F09E
:100CD000C4FB0121024800F0C0FB10BD000400402D
:100CE000000800407047000070B5002100230F226B
:100CF000C4781CB3174C246804F4E064C4F5E064C1
:100D0000C4F30721C1F10404E3B20A4144789C40D2
:100D1000E1B28478144021430C07210E0E4C057873
:100D20006155047804F01F050124AC4005786D116D
:100D3000AD0005F1E025C5F8004109E0047804F0B4
:100D40001F050124AC40054D0678761145F8264074
:100D500070BD00000CED00E000E400E080E100E088
:100D6000F0EE401ADFED233AB0EE632ADFED213AD0
:100D7000F0EE632ADFED1F3AB0EE633A71EEE03A2F
:100D80001D49C1ED003AD0ED003A91ED004A63EE05
:100D9000843AB0EE632AD0ED053A91ED004A73EE45
:100DA000843AC0ED053AF0EE003A81EE234AD0EDE8
:100DB000013A64EE233A90ED054A63EE843AF0EE90
:100DC000632AD0ED023A90ED044AD1ED004A34EEA8
:100DD000C44A63EE843A83EE814AB0EE443A72EE3E
:100DE000223A73EE833AB0EE630AD1ED003AC0EDD9
:100DF000043A7047000000004C000020B7EE000AE3
:100E000080ED000A9FED090A80ED010A9FED070AB7
:100E100080ED020A40F6B83181819FED040A80ED31
:100E2000040A9FED020A80ED050A704700000000E9
:100E30009FED060A80ED050A9FED040A80ED040A85
:100E40009FED020A024981ED000A70470000000090
:100E50004C000020F0B52DED028B89B004460D4604
:100E6000F0EE408A0026002008EE100A00271E48F7
:100E700000684008B0FBF4F0401E86B2B4FBF5F009
:100E8000401E08EE100ADFED190A88EEA00AF8EEFF
:100E9000480A20EE200ABCEEC00A10EE100A87B203
:100EA0008DED078AADF818600020ADF820006020B5
:100EB000ADF81A0006A90E4800F0B8FB6020ADF8A6
:100EC00004000120ADF8060003970020ADF81000E3
:100ED00001A9074800F032FB0821054800F06CFB2F
:100EE00009B0BDEC028BF0BD300000200000C8420C
:100EF000000400407047000029B1064A126802430E
:100F0000044B1A6004E0034A12688243014B1A60E2
:100F1000704700003038024029B1064A1268024387
:100F2000044B1A6004E0034A12688243014B1A60C2
:100F30007047000040380240F0B500210022002434
:100F4000022500260223324F3F6807F00C0121B131
:100F5000042905D0082937D105E02E4F076036E077
:100F60002D4F076033E02A4F3F1F3F68C7F380567D
:100F7000274F3F1F3F6807F03F036EB1264FB7FB77
:100F8000F3F7DFF88CC0ACF1040CDCF800C0CCF354
:100F9000881C07FB0CF40CE01E4FB7FBF3F7DFF8DF
:100FA00070C0ACF1040CDCF800C0CCF3881C07FB6B
:100FB0000CF4174F3F1F3F68C7F301477F1C7D00AC
:100FC000B4FBF5F7076002E0124F076000BF00BFF7
:100FD0000F4F3F6807F0F0010909104F7A5C07686E
:100FE000D74047600A4F3F6807F4E051890A0B4F2A
:100FF0007A5C4768D7408760054F3F6807F46041D7
:10100000490B064F7A5C4768D740C760F0BD0000C7
:10101000083802400024F40000127A005700002033
:101020007047000030B504780E4D2D78AC4217D1D2
:10103000C47C0D4D2D78AC4212D1847C0B4D2D78A3
:10104000AC420DD1D0F801400C60B0F805401480DE
:10105000C479947084681C60C4685C60048A1C81D4
:1010600030BD00002A0000202B0000202C000020B2
:101070002DE9F04706460F4690461D46DDF82090C4
:101080001C480078012832D100241B4909782955D1
:10109000641C281931680160241D281939880180D1
:1010A000B9788170E41C2819D8F800100160D8F8CC
:1010B00004104160B8F8081001810A3499F8001052
:1010C0002955641C0D49097829550D490D48FFF72C
:1010D0000BFB14200B497039486701210948FFF7C1
:1010E00037FB0020034908700120BDE8F08700208D
:1010F000FBE70000290000202A0000202B00002030
:1011000020000020706002400CB50020019000908B
:101110003448006840F480303249086000BF3148EC
:10112000006800F4003000900198401C0190009885
:1011300018B90198B0F5A04FF1D12A48006800F421
:10114000003010B10120009001E0002000900098D4
:10115000012846D123484030006840F080502149A2
:10116000403108602048006840F440401E49086053
:101170001C48083000681B490831086008460068B0
:1011800040F4004008600846006840F4A050086041
:101190001648091F0860081F006840F08070091F8A
:1011A000086000BF0F48006800F000700028F9D008
:1011B00040F205700E4908600A480830006820F0C7
:1011C00003000849083108600846006840F0020042
:1011D000086000BF03480830006800F00C000828D1
:1011E000F8D10CBD003802400070004008544007A0
:1011F000003C024030B503460C46002106E0585C36
:10120000655CA84201D0002030BD491C9142F6DB4C
:101210000120F9E701200449086004480068401CE7
:101220000249086070470000480000204400002088
:1012300010B51548006840F4700013490860134861
:10124000006840F001001149086000200F49083192
:1012500008600E4800680E4908400C4908600D48B7
:10126000091D0860081F006820F48020091F08601D
:10127000002006490C310860FFF746FF4FF0006080
:1012800001498039086010BD88ED00E00038024057
:10129000FFFFF6FE10300024F0B50C461546002185
:1012A0000022068C4FF6FE773E400684018B028CAE
:1012B0004FF60C7631407E1C06EA03162E4331436E
:1012C0004FF6F576324044F0010632430183028442
:1012D000F0BDF0B50C461546002100220026078C13
:1012E0004FF6EF7C07EA0C070784018B028C4FF660
:1012F000FF7707EA041640F6FF4739404FF6FF77BD
:1013000007EA033739434FF6FF7707EA05273943E2
:101310004FF65F773A4046F010073A430183028464
:10132000F0BDF0B50C461546002100220026078CC2
:101330004FF6FF6C07EA0C070784818B028C4FF68F
:10134000FF7707EA04264FF60C7739404FF6FF7710
:1013500007EA03172F4339434FF2FF573A4046F449
:1013600080773A4381830284F0BDF0B50C46154680
:10137000002100220026078C4EF6FF7C07EA0C07AE
:101380000784818B028C4FF6FF7707EA043640F61C
:10139000FF4739404FF6FF7707EA052739434FF6F5
:1013A000FF7707EA0337394345F6FF773A4046F4BB
:1013B00080573A4381830284F0BD000010B50121BB
:1013C000880700F047F81048007807281AD2DFE8AD
:1013D00000F0190405070806100013E012E011E000
:1013E00010E00A48D0ED000AB0EE600AFFF78AFB71
:1013F00008E00749898988B2FFF7FAFB0120024912
:10140000087000BF00BF10BD0000002004000020D5
:10141000680000201CB501210220FFF77DFD01219D
:101420000420FFF769FD4020009002208DF80400A1
:1014300003208DF8050000208DF806006946044859
:10144000FFF7B4FA022206210148FFF7F7FA1CBDA4
:1014500000080240CA430282704721B1028842F06C
:101460000102028004E002884FF6FE731A400280F7
:101470007047F0B50C4615461E4600210022002399
:101480000189028B038C4FF6F877394021434FF6E0
:10149000FC473A4040F201173A434FF6DD773B40B4
:1014A0004FF6FF7707EA06172F433B43018102837C
:1014B0000384F0BD0146486A704770B505460C4686
:1014C000208850B92389A28861882846FFF7E4FE66
:1014D000E188284600F07EF825E0208804280AD11B
:1014E0002389A28861882846FFF7F3FEE188284611
:1014F00000F079F817E0208808280AD12389A2880B
:1015000061882846FFF70DFFE188284600F078F84B
:1015100009E02389A28861882846FFF726FFE18831
:10152000284600F076F870BD1AB183890B43838199
:1015300002E083898B4383817047000070B50024EB
:1015400000220023058C4FF6FE7635400584028C80
:101550008388048B4FF68F752C40B51E2C400D8868
:101560002C43751E2A408D892A434D882A43104DED
:10157000A84202D00F4DA84213D14FF6F7752A406A
:10158000CD892A434FF6FB752A408D882A434FF6B2
:10159000FF652B404FF6FF552B400D8A2B434D8A9C
:1015A0002B43838004838D684563028470BD0000F3
:1015B00000000140000401400A460021018B4FF663
:1015C000F773194011430183704701858282704788
:1015D00041627047028B4FF6F3731A400283028B0D
:1015E0000A4302837047028B4FF2FF331A40028393
:1015F000028B4FF6FF7303EA01231A4302837047FD
:10160000828B4FF6F3731A408283828B0A43828364
:101610007047828B4FF2FF331A408283828B4FF6E2
:10162000FF7303EA01231A43828370470022028872
:10163000184B98420ED0184B98420BD0B0F1804F07
:1016400008D0164B984205D0154B984202D0154B46
:10165000984204D14FF68F731A404B881A43124BAD
:10166000984207D0114B984204D04FF6FF431A40DE
:101670000B891A4302804B68C3620B880385054BB4
:10168000984202D0044B984201D18B7A0386012301
:1016900083827047000001400004014000040040C4
:1016A00000080040000C0040001000400014004002
:1016B00000B587B001210846FFF71EFC0121C804D0
:1016C000FFF72AFC082200212248FFF7B7F9082279
:1016D00001212048FFF7B2F90120059002208DF882
:1016E000180000208DF81A0001208DF81B00022040
:1016F0008DF8190005A91748FFF758F90220059041
:101700008DF8180005A91348FFF750F94FF4E130A0
:1017100001900020ADF80800ADF80A00ADF80C000B
:10172000ADF810000C20ADF80E0001A90A4800F039
:101730002BF80121084800F011F801228021064809
:1017400000F018F801224021034800F013F807B018
:1017500000BD000000000240004C004021B1828921
:1017600042F40052828104E082894DF6FF731A40F0
:10177000828170471AB1838A0B43838202E0838A95
:101780008B438382704700002DE9FF4705460E46D4
:101790000024A14600BFA046B08900B100BF2C8A3A
:1017A00024F44054F08804432C82AC8941F20C604C
:1017B0008443B08831890843718908430443AC816C
:1017C000AC8A24F44074B0890443AC826846FFF7C5
:1017D000B3FB2048854202D01F48854202D1DDF884
:1017E0000C9001E0DDF80890A88900F4004040B1B9
:1017F00009EBC90000EB091031684900B0FBF1F7B3
:1018000007E009EBC90000EB091031688900B0FB63
:10181000F1F76420B7FBF0F004012009642101FB1B
:101820001078A88900F4004040B1322000EBC800D5
:10183000B0FBF1F000F00700044308E0322000EBB9
:1018400008106421B0FBF1F000F00F0004432C817C
:10185000BDE8FF87001001400014014000BFFEE713
:1018600003B401984100009850EAC12018BF042039
:101870004A0D18BF40F0010040F2FF72B2EB515F19
:1018800008BF40F00200012808BF052002B07047E1
:101890002DE9F04D2DED040B2DED0E8B96B0DDE90D
:1018A0002550279CDDF890A025F0004624F0004844
:1018B000BAF1000F14BF0121002101EB4502FC49E0
:1018C00053184A1093422AD3002814BF012300233F
:1018D00003EB44030B44F7498B4220D358EA000141
:1018E0009FEDF59B76D0DFF8D8B35D4503D1BAF113
:1018F000000F05D188E0BAF1000F08BF002100D029
:10190000012101EB450111F5001F08D8002814BF83
:101910000121002101EB440111F5001F0BD99DEDC0
:10192000261B9DED240B16B0BDEC0E8B04B0BDE85C
:10193000F04D00F069BE0027002DBCBFE14988458D
:1019400021DAE1498845A8BF02271CDAC3451ADC21
:10195000DE4901EB2851142908DDC1F1340220FAD7
:1019600002F101FA02F282420DD108E058B9C1F148
:10197000140228FA02F101FA02F2424503D101F001
:101980000101C1F1020756EA0A0124D1002C22DA32
:10199000002D18BF022F01D0012F0AD00220FEF720
:1019A00018FD16B0BDEC0E8B04B0BDE8F04D00F094
:1019B00013BE0220FEF70DFD00F00EFE51EC100BE1
:1019C00001F0EDF841EC100B16B0BDEC0E8B04B03D
:1019D000BDE8F08D18E09FEDBEAB9FEDBF8B0028FA
:1019E00071D1B848804522D105F1804010F58010B2
:1019F00008BFBAF1000F07D0B3450ADC002CA8BF1E
:101A00009DED260BE0DA0DE0B0EE490AF0EE690A32
:101A1000DAE7002C06DA9DED260B51EC100B01F0F5
:101A2000BEF86FE0AE48784490ED000BCCE7D845A7
:101A30004DD1002C48DA2EB186423AD1BAF1000FCE
:101A400042D126E0BAF1000F13D00220FEF7C1FC0C
:101A500000F0F6FD8DED020B9DED240B8DED000BDE
:101A600010EE900A039961F31E0003909DED020BA6
:101A7000AAE78DED02AB9DED240B1AEE901A10EE45
:101A8000900A8DED000B61F31E0003909DED020B9B
:101A90009AE78DED028B9DED240B18EE901A10EE57
:101AA000900A8DED000B61F31E0003909DED020B7B
:101AB0008AE709DA9DED240B51EC190B53EC102B3E
:101AC00001F068F91EE020E09DED240B7CE78642E2
:101AD0001BDAB4F1804F0DD0A4F10050B0F1FF50EB
:101AE00013D1002D11DB9DED240B51EC100B00F0F8
:101AF000E9FF07E09DED240B53EC102B51EC100B8C
:101B000000F0C2BC41EC100B5EE79DED240B51ECE4
:101B1000100B00F0D9FDBAF1000FCDE90E0142D152
:101B20009FED710B46B3A6F1E040B0F17F600CD0A1
:101B30005E4538D1002D00DAA7B3022F0CBF01207B
:101B40004FF0FF3001F07EFADCE7002D01DD002CC4
:101B50000DDA002D01DD002C1FDB002D16DA002C24
:101B600014DB012F08BF9FED620B3FF42DAFB0EEE9
:101B70004A0AF0EE6A0A27E7022F18BF002D0CD0A0
:101B8000012F0AD1002DFFF61FAF06E0002DB8BFD0
:101B9000002C08DA012F3FF417AFB0EE480AF0EE40
:101BA000680A11E71BE0012000EBE57050EA07012D
:101BB00015D0791EB0EE498AF0EE698A084308BF55
:101BC0009FED4D8B4E480025804570DD4D494E48B8
:101BD000884514DDB0420DDB002C19DB2FE001201D
:101BE000FEF7F7FB16B0BDEC0E8B04B0BDE8F04D70
:101BF00000F016BDB34502DC002C09DC1FE0864274
:101C000002DA002C1BDA03E05E452BDD002C16DD2A
:101C10000220FEF7DEFB00F013FD8DED020B53EC0E
:101C20001A2B51EC180B01F061FACDE90001039970
:101C3000019861F31E0003909DED020BC4E60220A3
:101C4000FEF7C7FB00F00CFD10EE901A18EE900A9C
:101C50008DED020B8DED008B61F31E0003909DED69
:101C6000020BB1E69DED0E0B53EC192B51EC100B52
:101C700001F048FC9FED260BCDE9080153EC102B39
:101C80009DED080B51EC100B01F030FA9FED221B7B
:101C900053EC112B01F05EFB9DED081B53EC112B57
:101CA00001F024FA9FED1E1B53EC112B3CE08CE05D
:101CB000FFFF1F00FFFF0F00000000000000F03FCB
:101CC0000000F03F0000F07F0000404301FCFFFFF8
:101CD000000000000000F07F000000000000000095
:101CE0001E1F000000000000000000000000008037
:101CF000000000000000F0FF000000000000F0BF46
:101D00000000E0410000F043FFFFEF3F0000000053
:101D1000000000000000D03F555555555555D53FA2
:101D2000000000000000E03F01F014FB9DED080BF7
:101D300041EC1A0B53EC102B51EC100B01F0D6F9BF
:101D400053EC1A2B01F0D2F941EC1A0B9FEDFE0B6C
:101D500053EC102B9DED080B51EC100B01F0C6F964
:101D600041EC1B0B9FEDFA0B51EC1A0B53EC102BB3
:101D700001F0BCF941EC1A0B9FEDF70B53EC102B63
:101D80009DED080B51EC100B01F0B0F953EC1A2B40
:101D900001F0B8FB41EC1A0B51EC1B0B53EC1A2B66
:101DA00000F03CFF0690CDE906519DED060B53EC8B
:101DB0001B2B51EC100B01F0A5FB53EC1A2B01F07F
:101DC000C9FA41EC100B00F0A1B90020B6F5801F54
:101DD0000EDA9FEDE30B53EC102B9DED0E0B51EC47
:101DE000100B01F083F9CDE90E016FF034000E46BF
:101DF00000EB2650A0F2FF37C6F31300DA4940F09B
:101E00007F6646F040568842D8BF002408DDD74997
:101E10008142C8BF012403DC0024A6F580167F1C84
:101E2000D348784400EBC4000F9690ED00CB9DEDB5
:101E30000E0B53EC1C2B51EC100B01F063FB9DEDD2
:101E40000E0B41EC1B0B53EC1C2B51EC100B00F058
:101E5000E5FE41EC100B51EC190B53EC102B00F08C
:101E600099FF41EC1D0B51EC1B0B53EC1D2B01F0AA
:101E70003DF941EC1A0BBF488DED10AB784410953D
:101E800090ED000B4FF0005040EA660000EB8440FC
:101E90008DED080B00F5002009909DED080B53EC2B
:101EA0001C2B51EC100B01F02DFB9DED0E1B53EC88
:101EB000112B01F04FFA41EC100B53EC102B9DED60
:101EC000100B51EC100B01F011F99DED080B41ECDA
:101ED0001C0B53EC102B9DED100B51EC100B01F073
:101EE00005F953EC1B2B01F035FA53EC1C2B01F0D8
:101EF00009FB53EC1D2B01F0F9F841EC1C0B53ECE2
:101F00001A2B51EC1A0B01F0F1F841EC1B0B9A481B
:101F10000621B0EE4B0AF0EE6B0A784400F0E0FACE
:101F2000B0EE401AF0EE601AB0EE41DAF0EE61DA8F
:101F300053EC1B2B51EC1B0B01F0D8F853EC1D2B71
:101F400001F0D4F89DED100B41EC1B0B53EC1A2B58
:101F500051EC100B00F062FE53EC1C2B01F0C6F8A4
:101F600053EC1B2B00F05AFE9DED100B41EC1B0BAC
:101F700053EC102B51EC100B01F0B8F841EC1D0B99
:101F80009FED7FEB53EC1E2B00F048FE53EC1B2B18
:101F900000F044FE0890CDE908519DED080B53EC8C
:101FA0001E2B51EC100B01F0ADFA53EC1D2B01F080
:101FB000A9FA53EC1B2B01F0CDF99DED080B41EC78
:101FC0001D0B53EC102B9DED100B51EC100B01F081
:101FD0008DF841EC1B0B53EC1A2B51EC1D0B01F04F
:101FE00085F89DED080B41EC1A0B53EC102B51ECCE
:101FF0001C0B01F07BF853EC1A2B00F00FFE41ECA8
:102000001A0B51EC1B0B53EC1A2B00F007FE0C9033
:10201000CDE90C519DED0C0B53EC1B2B51EC100B2F
:1020200001F070FA53EC1A2B01F094F941EC1B0B00
:102030009FED550B53EC102B9DED0C0B51EC100B41
:1020400001F054F841EC1A0B9FED510B51EC1B0BB6
:1020500053EC102B01F04AF841EC1B0B9FED4E0B9B
:1020600053EC102B9DED0C0B51EC100B01F03EF8D6
:1020700053EC1B2B00F0D2FD41EC100B4848784488
:1020800000EBC40090ED001B51EC100B53EC112B36
:1020900000F0C4FD41EC1B0B384600F0D3FFCDE946
:1020A000080153EC1B2B51EC1A0B00F0B7FD41EC6F
:1020B000100B3C48784400EBC40090ED00CB51EC91
:1020C000100B53EC1C2B00F0A9FD9DED081B53ECED
:1020D000112B00F0A3FD0690CDE906519DED080BF4
:1020E00053EC102B9DED060B51EC100B01F00AFA8E
:1020F00053EC1C2B01F006FA53EC1A2B01F002FAF8
:1021000053EC1B2B01F026F941EC100B9DED261B27
:1021100053EC102B8DED001B00959DED260B51EC23
:10212000100B00F0E3FF9DED000B41EC1A0B53EC9C
:10213000102B9DED260B51EC100B01F0E3F99DEDFA
:10214000061B53EC112B2FE0000000604715F73FF2
:10215000FE822B654715F73F44DF5DF80BAE543E1A
:1021600000000000000040438E9803007AB60B0088
:102170009A1A0000C81A0000D219000000000000DE
:102180000000000000000840000000E009C7EE3F2A
:10219000FD033ADC09C7EE3FF5015B14E02F3EBEBC
:1021A0005E1800001818000000F0A0FF53EC1A2B76
:1021B00000F034FD9DED060B41EC1A0B53EC102B97
:1021C0009DED000B51EC100B00F090FFCDE90C01E0
:1021D0009DED0C0B51EC1A0B53EC102B00F01EFD77
:1021E000CDE902010C46AA498C422FDB611A084353
:1021F00018D19DED0C0B53EC102B9DED020B51EC07
:10220000100B01F07FF941EC1B0B9FEDA30B51EC80
:102210001A0B53EC102B00F001FD53EC1B2B01F0BB
:1022200063F82DD20220FEF7D4F800F009FA10EE80
:10223000901A18EE900A8DED020B8DED008B61F374
:102240001E0003909DED020BFFF7BEBB944A24F0E5
:102250000041914214D39349214408437FF4EFACE9
:102260009DED0C0B53EC102B9DED020B51EC100B64
:1022700001F048F953EC1A2B01F036F87FF6DFAC89
:1022800024F000408849894A002601EB205182420F
:102290002BDA481C4FF4801121FA00F02044844AC4
:1022A000C0F30A517A44A1F2FF3192ED000B814A4A
:1022B0008DED080BCA4020EA0202C0F3130040F47F
:1022C0008010C1F1140120FA01F60992002CB8BF68
:1022D00076429DED080B53EC102B9DED0C0B51EC51
:1022E000100B01F00FF9CDE90C019DED0C0B51EC39
:1022F0001A0B53EC102B00F091FC9FED6F0B089024
:10230000CDE9085153EC102B9DED080B51EC100B4F
:1023100000F0ECFE41EC1B0B9FED690B53EC102B16
:102320009DED080B51EC100B00F0E0FE9DED0C0B49
:1023300041EC1C0B53EC102B9DED080B51EC100BDA
:1023400001F0E0F853EC1A2B01F004F89FED5E1B4E
:1023500053EC112B00F0CAFE53EC1C2B00F05EFC7A
:1023600041EC1A0B51EC1B0B53EC1A2B00F056FCF2
:10237000CDE902019DED020B53EC1B2B51EC100B30
:1023800001F0C0F853EC1A2B00F0E4FF9DED020BB6
:1023900041EC1A0B53EC102B51EC100B00F0A6FE85
:1023A000CDE908014A489DED080B0521784400F06D
:1023B00097F89DED081B51EC100B53EC112B00F01E
:1023C00095FE9DED021B53EC112B00F0C3FFCDE9F0
:1023D00006019DED020B53EC1A2B51EC100B00F093
:1023E00085FE53EC1A2B00F019FC9FED3B0B41ECE2
:1023F0001A0B53EC102B9DED060B51EC100B01F05A
:1024000081F89DED060B41EC1B0B53EC102B9DED61
:10241000020B51EC100B00F069FE53EC1B2B00F08B
:10242000B9FC53EC1A2B01F06DF89DED021B53EC37
:10243000112B01F067F853EC192B00F08BFFCDE95D
:10244000020101EB065001150029C8BF039015DCFD
:102450009DED020B324651EC100B01F0EAF9FFF74B
:10246000FFF9042808BF00F0FBF832469DED020B8F
:1024700051EC100B01F0DDF9CDE902019DED020BED
:1024800051EC180B53EC102B00F030FEFFF73ABB69
:102490000000904000000000FE822B654715973C2D
:1024A00000CC904000346F3F01FCFFFF0000E03F94
:1024B000A0160000FFFF0F0000000000432EE63FC3
:1024C000396CA80C615C20BEEF39FAFE422EE63F63
:1024D0007015000000000000000000000000004037
:1024E00070B504462DED028B4D1E00EBC500B0EE1D
:1024F000408AF0EE608A90ED000B35F0060017D0B0
:1025000053EC182B51EC100B00F0F0FD41EC100BCC
:102510006D1E04EBC50090ED001B51EC100B53EC4D
:10252000112B00F07BFB41EC100B35F00600E7D1DE
:10253000022D36D0042D1CD0062D1CBFBDEC028B05
:1025400070BD53EC182B51EC100B00F0CFFD94ED47
:102550000A1B53EC112B00F061FB53EC182B00F01D
:10256000C5FD94ED081B53EC112B00F057FB41EC1B
:10257000100B53EC182B51EC100B00F0B7FD94ED41
:10258000061B53EC112B00F049FB53EC182B00F009
:10259000ADFD94ED040B53EC102B00F03FFB41EC30
:1025A000100B53EC182B51EC100B00F09FFD94ED29
:1025B000021B53EC112B00F031FB53EC182B00F0F5
:1025C00095FD94ED001B53EC112B00F027FBBDECA7
:1025D000028B41EC100B70BD9FED070B10B553EC57
:1025E000102B9FED070B51EC100B00F0D3FB41ECCF
:1025F000100B10BD000000000000000000000000F3
:10260000000000000000F03F10B553EC112B51EC1E
:10261000100B00F003FB41EC100B10BD000000009C
:102620009FED050B10B553EC102B51EC100B00F087
:10263000B1FB41EC100B10BD0000000000000000D9
:102640009FED050B10B553EC102B51EC100B00F067
:102650004DFD41EC100B10BD0000000000000070AB
:102660009FED050B10B553EC102B51EC100B00F047
:102670003DFD41EC100B10BD0000000000000010FB
:1026800010B5044601211020FEF746FC42F2CF00AF
:102690000C490885601EC8620020486201208882BB
:1026A000002008820120088000BF0648008A002818
:1026B000FBD000200349088000211020FEF72CFCED
:1026C00010BD00000010004082B0CDE9000121F0F3
:1026D000004001909DED000B02B051EC100B7047D3
:1026E00010B500F026FAFEF7E3FFFEF785F8FEF7D7
:1026F0002FF9FEF78FFE0748B0F90C109FED060A80
:102700000648FEF7A7FBFEF7D5F80248FEF776FB72
:1027100010BD00006800002000000000406F400174
:102720002DED0C8B82B0FFF7DBFF96E1CB480078F4
:1027300001285FD10103CA48FEF7A7F90422C9A105
:10274000CA48FEF757FD50B1C9480078012801D1A9
:10275000022001E0C6480078C549087047E004221D
:10276000C4A1C248FEF746FD18B3C148007801284D
:1027700003D10320BE49087039E0BD480078042821
:1027800035D1BE4880780A2190FBF1F0BB494978E9
:10279000BA4A127802EBC20303EB021201EB820188
:1027A000084400EE100AB8EEC00AB54880ED000AF1
:1027B0001DE00422B3A1AD48FEF71CFD18B10520B1
:1027C000AB49087013E00422B0A1A848FEF712FD3F
:1027D00050B1A7480078042801D1062001E0A448A0
:1027E0000078A349087002E00120A1490870002088
:1027F0009A4908709E480078072805D2DFE800F063
:1028000004040593D8B9FE0026E10120934908701D
:10281000A048A14B994AA14900909448FEF728FC92
:102820009648407800EE100AB8EE400AB2EE041A5C
:10283000C0EE010A9148007800EE100AB8EE400A96
:1028400030EE800A964880ED000A8C48C07800EE91
:10285000100AB8EE400AB2EE041AC0EE010A874828
:10286000807800EE100AB8EE400A30EE800A8C48FC
:1028700080ED010A8148807900EE100AB8EE400A26
:1028800010EE101A084600F027FF41EC1D0BB0EEC9
:102890004D1AF0EE6D1A9FED830BFEF7F9FFB0EEC7
:1028A00040BAF0EE60BA7548407900EE100AB8EE12
:1028B000400A10EE101A084600F00EFF53EC1B2BD6
:1028C00000F068FA41EC190B6C48007900EE100A30
:1028D000B8EE400A10EE101A084600F0FDFE53EC68
:1028E000192B00F09BF900F067F96D498860634887
:1028F000C07942F2107110FB01F06049097A01EBD6
:10290000C10202EB011100EB81005C49497A0844E5
:1029100000B263498881898988B2FEF7C9F801202D
:102920005349087098E001204C49087059485A4BA7
:10293000524A5A4900904D48FEF79AFB4F4880781A
:102940000A2190FBF1F04D4949784C4A127802EB8C
:10295000C20303EB021201EB8201084400EE100AED
:10296000B8EEC00A464880ED000A012040490870D0
:1029700072E00120394908704648474B3F4A4749B1
:1029800000903A48FEF774FB00204849086044482C
:10299000FEF74EFA4FF6FF714548FEF719FE00208C
:1029A00044490880FEF78CF904203149087053E04F
:1029B00000202A4908703F48008805283CD100249F
:1029C00034E03D482949096801603C480021018004
:1029D00081703348183030F81400C0F30720384AAB
:1029E00002F814002E48183010F814106000401C33
:1029F0001154012019490870264800E01DE0264BBB
:102A00002E4900902C48FEF733FB2B480021016033
:102A10002A48018081702A480160416001810020BC
:102A2000244908800A20FFF72BFE641C21480088F7
:102A3000401EA042C5DC00BF0EE00120074908701F
:102A40001448154B0D4A154900900848FEF710FB35
:102A500006200749087000BF00BF67E62900002074
:102A6000000C0240535049440000000021000020A7
:102A7000000000205356454C00000000B400002028
:102A8000040000204352554E0000000053544F50A4
:102A90000000000028000020A000002025000020E9
:102AA0006800002000000000000024401400002006
:102AB00000080040180000205000002054000020B2
:102AC000BE00002000B52DED048B83B041EC190B46
:102AD00000F04CFC41EC180B18EE100A18EE901A9E
:102AE0008DED008B002818BF0120084320F0004026
:102AF000C0F17F6000F1E040C00F14D019EE101A51
:102B000019EE900A8DED009B002918BF01210843A2
:102B100020F00040C0F17F6000F1E040C00F04BF32
:102B20000120FDF756FC51EC180B03B0BDEC048BF3
:102B300000BD1FB5632401210846FEF7EDF91C20F6
:102B40008DF80C0000208DF80D0001208DF80E008E
:102B50008DF80F0003A8FEF7C7F8019442F2CF00EA
:102B6000ADF800000020ADF80800ADF8020069469D
:102B70004FF08040FEF75AFD4FF08040008840F053
:102B800080004FF080410880012221469007FEF727
:102B90001CFD012211469007FEF7C6FC1FBD81F007
:102BA0000041704780F00040704721F000417047BD
:102BB00020F000407047000021F00042A2F1605276
:102BC000B2F5801F01F0004328BFD2F17F6C0BD912
:102BD0005FEA001C43EAC20242EB507018BF704724
:102BE00028BF20F001007047B2F5801FBCBF184617
:102BF00070474FEA410C1CF5001F02D2084600F056
:102C0000E1BD70B500F01CFB00000089FFF7F6BFC6
:102C10004FF00040A0F580007047000010B591EA29
:102C2000030F48BF83F0004300F17484841A71EBF2
:102C3000030C05D2121943EB0C03001B61EB0C01D2
:102C4000DFF824E14FEA1154A4EB135C1EEA430FB2
:102C500018BF9EEA445F73D023EA0E03DCF1200E16
:102C600021EA045143F4801332D322FA0CFE10EB14
:102C70000E0023FA0CFE41EB0E01CCF1200E03FAFC
:102C80000EFE10EB0E0051F10001B1F5801FCCF1EA
:102C9000200E32D201EB045112FA0EF2BDE81040C0
:102CA00058BF7047401C38BF5FEA420218BF7047E8
:102CB000002814BF20F0010041F100014FEA410358
:102CC00013F5001F38BF7047A1F1C04100F006BBEB
:102CD000012A43EB0302ACF1200CDCF11F0E32BFE2
:102CE0004FF0000E23FA0CF310EB030041EB0451FC
:102CF000B4EB115FD0D0A1EB045101F5801149086C
:102D00005FEA300001EB04510ED350F1000038BFF0
:102D100012FA0EFE08D1BDE81040C9E7401C38BFCA
:102D20005FEA4202CAD1C3E7BDE810404FEA41035F
:102D300013F5001F38BF7047A1F1C04100F0CEBAB3
:102D40009EEA445F08D011EA5E0FBDE8104004BF60
:102D500001F0004100207047BDE8104070B500F060
:102D60006FFA00BF64FBBE3E0000E0FF02494FF077
:102D7000000000F02CBD00BF0000F87F491058BFD4
:102D8000C1F140415B1058BFC3F140438B42EFF3A8
:102D9000008070472DE9C04130B4DFF8A0C23CEAA2
:102DA000111418BF3CEA131400F0EC8081EA03050B
:102DB0001CEA111444EAD57418BF1CEA131500F07C
:102DC000C780A4EB05044FF0004545EAC12145EA60
:102DD000C32341EA505143EA525304F17F749942AC
:102DE00004F500344FEAC0204FEAC22208BF9042E7
:102DF00000F09C804FEA13650FF24016765D4FEAB3
:102E0000134506FB05F7C7F1807706FB07F74FEA86
:102E1000D737A7FB03687642C8F58038A7FB06CEF4
:102E200038BFA8F1010807FB08E64FF0000EA6FB2B
:102E3000028CE6FB03CEDCF1000CCEF1004E38BF75
:102E4000AEF1010EA6FB0C584FF000074FF0000545
:102E5000E6FB0E87A1FB08C6A0FB07CE16EB0E060D
:102E600045F10005E1FB076515F1E04E7EBFA4F5D5
:102E700080345FEA46066D4116F1800745F1000592
:102E80004FEA17274FEA066647EA0567A6F1DE46CE
:102E9000B6F1805F4FEA15251FD9384624F0010CA2
:102EA00005EBC471BCF1FE6F01EB0C1102D8F0BC54
:102EB000BDE8008124425CBF01F5801E9EEAC47F0C
:102EC00002D4F0BCBDE80081244238D4F0BCA1F1AA
:102ED000C041BDE8004100F001BA4FEAD22242EA07
:102EE00043524FEAD323A7FB02864FEAD02040EAA1
:102EF000415007FB03661EEA0E0F4FEAD12105FB86
:102F0000026658BFA6EB0056B6EB00564FEA520ECB
:102F10004EEAC37E18EB0E0E56EB530EBDD518EBE2
:102F200002085E417F1C55F10005B6E74FF480159D
:102F30004FF000074FF000064FF00008ADE7F0BC7F
:102F40004FF0000001F1C04101F00041BDE80081F7
:102F500011EA0C1F0CEA131500D00CE013EA0C1F49
:102F600000F025804FF00000F0BC81EA030101F081
:102F70000041BDE80081F0BCBDE8004181EA0301E9
:102F800000F0ACB9F0BCBDE8004170B500F058F9F4
:102F9000097EFC3E00F007B881EA03014FF0000013
:102FA00001F00041704781EA030100F097B9F0BCDD
:102FB000BDE800414FF0000021497047FFFDFBF9DB
:102FC000F7F5F4F2F0EEEDEBE9E8E6E4E3E1E0DE5C
:102FD000DDDBDAD8D7D5D4D3D1D0CFCDCCCBCAC8CE
:102FE000C7C6C5C4C2C1C0BFBEBDBCBBBAB9B8B7F5
:102FF000B6B5B4B3B2B1B0AFAEADACABAAA9A8A8E8
:10300000A7A6A5A4A3A3A2A1A09F9F9E9D9C9C9BB5
:103010009A99999897979695959493939291919060
:103020008F8F8E8E8D8C8C8B8B8A898988888787F1
:103030008685858484838382828181800000FF0766
:103040000000F87F10F0004248BF4042B0FA80F321
:1030500010FA03F10AD0C3F11D0303F580634FEAB0
:10306000415002EB035202EBD12170474FF00000B8
:103070007047000051EA030C17D41CF5801F58BF9D
:10308000BCF5801F00F10680994218BF704708BF49
:103090009042704707D711F5801F58BF13F5801F66
:1030A00019D499427047894270471CF5801F08D592
:1030B000BCF5801FF7D58B4218BF704708BF82420E
:1030C00070474FF4001C1CEB410F38BF1CEB430F43
:1030D00001D28B42704770B500F0B2F892244900DB
:1030E0004FF000514FF08053FFF748BEDFF848C162
:1030F00070B51CEA111E1EBF1CEA13159EEA0C0FC8
:1031000095EA0C0F00F06F8081EA030423EA4C1368
:103110004EEAD47E21EA4C1141F4801143F480132D
:10312000AE44A1FB024CA0FB0365AEF17F7E3619D5
:1031300055EB0C05A1FB034C4CF10003A0FB021C5A
:1031400016EB0C06654153F10003094218BF46F027
:10315000010613F4007F0BD14FEA03314FEA05302B
:10316000340341EA155140EA16506FF003020AE0B9
:103170004FEAC3214FEAC520F40241EA555140EA23
:1031800056506FF0020202EB2E4201EB025585EA27
:10319000CE710AD05FEA440C18BF24F0004450F10D
:1031A000000041F1000120EAD47040F2FE7C62454B
:1031B00000D270BDA84214BF4FF080444FF040448D
:1031C000002E08BF0024BEF1806FA8BFA1F1C0414E
:1031D000BDE8704080F282804FF0000001F1C041F4
:1031E00001F0004170479EEA0C0F0CEA131518BF5E
:1031F00095EA0C0F06D04FF0000081EA030E0EF0A6
:10320000004170BD00F01CF88900013E00F007B8D5
:1032100000F009B84FEA430C5FEA5C5C08D081EA31
:10322000030100F05BB84FEA410C5FEA5C5CF6D149
:103230004FF00000014970470000FF070000F87FD1
:103240000EF1020E2EF0030E5EF8046B364205D42A
:10325000012A43EB030515F5001F12D8012841EBA5
:10326000010C1CF5001F0CD80ED14FEAD17C15F5CE
:10327000001F0CEB4C0C0CF1020C08BF4CEBD37C88
:1032800004E04FF0080C01E04FEAD37C0CEB4C0556
:1032900026FA05F606F00706B6F1040C06D20EEB88
:1032A000860CBDE870404CF0010C6047DFE80CF084
:1032B000090B02024FF000414FF00000A1F5002180
:1032C00070BD19461046012851EB010418BFD4F512
:1032D000001484BF002001F0004170BD0808A0F573
:1032E00000114FEA3101704753EA010C17D41CF565
:1032F000801F58BFBCF5801F00F106808B4218BFAD
:10330000704708BF8242704707D713F5801F58BF28
:1033100011F5801F19D48B4270479B4270471CF5F2
:10332000801F08D5BCF5801FF7D5994218BF70479C
:1033300008BF904270474FF4001C1CEB430F38BF8E
:103340001CEB410F01D2994270470FB40CBC03BC77
:10335000FFF7C1BE91EA030F10B581F000413FF5C0
:1033600065AC83F0004300F0D5B800002DE9F041D2
:1033700001F5801CBCF5001FC0F2A9804FEA115C6A
:1033800021EA0C510CF1FD0C41F480115FEA5C0C58
:103390000CF5C07C01D34000494130A4890241EAC8
:1033A000905187028E0E0A0CA45D04FB04F602FB0A
:1033B00006F6C6F14046A4FB0662F60D46EA422632
:1033C00006FB06F4A4FB01235242C3F1404338BF7D
:1033D0005B1EA6FB02420024E6FB0324D20B42EA5A
:1033E0004446A6FB0623A1FB02E2A3FB07E4E3FBA2
:1033F00061426442C2F1404E38BFAEF1010EA6FBFD
:1034000004234FF00002E6FB0E32A2FB0346340019
:10341000E2FB6264A1FB06E6A4FB07E8E4FB61684B
:103420007642C8F1405838BFA8F10108A2FB06E473
:10343000A3FB08E5E2FB6854A1FB05E6A7FB04E853
:10344000E1FB648618F1200556F10006A809A8F1F1
:103450001B08B10908F03F08B8F10A0F40EA86607E
:103460001CD901EB0C51BDE8F08100BFFCF5EEE882
:10347000E2DDD8D3CFCBC7C3C0BDB9B6B4B1AEAC13
:10348000A9A7A5A3A19F9D9B9A9896959392908F8B
:103490008D8C8B898887868584838281A0FB0068D8
:1034A00000FB01F208EB4208B8EB872807D5341877
:1034B00058EB0104D5D5401C51F10001D1E7341A75
:1034C00078EB0104CDD4401E71F10001C9E75FEA39
:1034D0004C0C5FEA9C5C0DD105D34FF0000001F06D
:1034E0000041BDE8F081BDE8F04170B5FFF7A8FEEE
:1034F0006DDBFFBEBDE8F0414FF0000000497047B2
:103500000000F87F10B591EA030F48BF83F0004335
:103510003FF58CAB841A71EB030C07D212198CF0B7
:10352000004C43EB0C03001B61EB0C01DFF8A4E142
:103530004FEA1154A4EB135C1EEA430F18BF9EEA36
:10354000445F00F0B08023EA6E03524221EA045146
:10355000C3EB6E0338BF5B1EDCF1200E25D322FACD
:103560000CFE10EB0E0043FA0CFE41EB0E01CCF109
:10357000200E03FA0EFE10EB0E0051F10001CCF10B
:10358000200E29D412FA0EF201EB0451BDE81040CE
:1035900058BF7047401C1CBFB2F1004F7047002855
:1035A0000CBF491C20F00100704712EB020E43EBE8
:1035B000030218BF4FF0010E4EEA4202ACF1200C9C
:1035C000DCF11E0E54D943FA0CFE10EB0E0051F143
:1035D000FF31CCF11E0ED5D50EF1010E12FA0EFE02
:1035E000404141EB010101EB445C5FEA5C5C10D9B6
:1035F00010EBDE7001EB045138BFBEF1004FBDE8A7
:10360000104018BF704700280CBF491C20F0010073
:10361000704730D24FEAD42C11F5001124F4006425
:103620001BD0B1FA81F20B3AA41AA41ED2F12003E6
:10363000914030FA03F31943904001EBCC71002C18
:1036400001EB0451BDE81040A8BF704701F1C04133
:103650004FF0000001F000417047B0FA80F310FA1B
:1036600003F100D110BDE41A173C4805C90AE4E78C
:1036700001EB045110BD491001EB0451BDE81040AD
:103680004FEA300002E04FF0000170474A0008BFE7
:103690000042F8D0B2F5001F28BF704701F000418A
:1036A0004FF0000070479EEA445F07D011EA5E0FBA
:1036B000BDE8104004BF002100207047BDE8104065
:1036C00070B5FFF7BDFD00BF40DFF63E83F000415F
:1036D000104670470000E0FF43004FEAD30C4FEA6A
:1036E0003C0C43401FBF40070CF1605113F0FE4FEC
:1036F00070471CF0006F03D100200CF000417047B0
:103700000CF0004343EA507010B540EACC0000F0E2
:103710000EF800BF000000924FEA0001FFF7DEBD87
:103720004FF000414FF00000A1F5002170470EF16D
:10373000020E2EF0030E5EF8044B244204D44FEA2E
:103740004102B2F17F4F11D84FEA4003B3F17F4FEE
:103750000CD80ED14FEAD07CB2F17F4F0CEB4C0C61
:103760000CF1020C08BF4CEBD17C04E04FF0080CCC
:1037700001E04FEAD17C0CEB4C0324FA03F404F093
:103780000704B4F1040C06D20EEB840CBDE8104023
:103790004CF0010C6047DFE80CF0070802024FF024
:1037A0000040A0F5800010BD0846420018BFD2F1CD
:1037B000807288BF00F0004010BD4FF04070E1EE15
:1037C000100A7047FF2141EAD050C00570470CF045
:1037D0000F03092B08BF082000F059800A2B0BD0DB
:1037E000082B18BF704708BF1CF0400F0AD04FF0DD
:1037F00000004FF0000170471CF0400F18BF4FF061
:10380000004070471CF0100F08D020F0704300F00B
:103810007F4242EAD3014FEA4370704700F06040B4
:1038200021F07F4242EA000201F07F4040EA7270DC
:1038300070474FF0FF0C4CF4E06C1CEA11531CBFB6
:103840009CEA030C9445C2BFDA4201EB0251704777
:10385000002B0DD0BCF1000F0FD0002A01F0004169
:10386000A4BF41F0E04141F07F614FF0000070479C
:1038700001F000414FF00000704750EA01334FF073
:103880009B0C18BF4CF0806C7FF470AA70471CF43E
:10389000801F11D01CF4E02F03D06FEACC31490017
:1038A00070474FF04050EFF3008222F0704242EA3E
:1038B000000282F3008870474FF00000704700005C
:1038C000000000000000F03F000000000000F83F92
:1038D00000000000000000000000004003B8E23FCC
:1038E000000000000000000006D0CF43EBFD4C3E7E
:1038F000033333333333E33FFFAB6FDBB66DDB3F73
:103900004D268F515555D53F01411DA96074D13FBA
:1039100065DBC9934A86CD3FEF4E454A287ECA3FB4
:103920003E5555555555C53F93BDBE166CC166BF36
:103930002CDE25AF6A56113FF16BD2C541BDBBBE2F
:10394000D0A4BE726937663E00000000000000008F
:10395000703900080000002068000000C401000861
:10396000D839000868000020C0060000E001000807
:103970000100000000000000000000000000000046
:10398000000000000000000000000000FFFF000039
:1039900000000000000000000000020316061500F1
:1039A000007A030A00000000000000000102030486
:1039B00006070809000000000000000000000000E9
:1039C00000000000000000000000000102030401EC
:0839D0000203040607080900C8
:040000050800018965
:00000001FF
